{
	"compilerInput": "{\"language\":\"Solidity\",\"sources\":{\"contracts/2_Owner.sol\":{\"content\":\"// SPDX-License-Identifier: GPL-3.0\\n\\npragma solidity >=0.7.0 <0.9.0;\\n\\nimport \\\"hardhat/console.sol\\\";\\n\\n/**\\n * @title Owner\\n * @dev Set & change owner\\n */\\ncontract Owner {\\n\\n    address private owner;\\n\\n    // event for EVM logging\\n    event OwnerSet(address indexed oldOwner, address indexed newOwner);\\n\\n    // modifier to check if caller is owner\\n    modifier isOwner() {\\n        // If the first argument of 'require' evaluates to 'false', execution terminates and all\\n        // changes to the state and to Ether balances are reverted.\\n        // This used to consume all gas in old EVM versions, but not anymore.\\n        // It is often a good idea to use 'require' to check if functions are called correctly.\\n        // As a second argument, you can also provide an explanation about what went wrong.\\n        require(msg.sender == owner, \\\"Caller is not owner\\\");\\n        _;\\n    }\\n\\n    /**\\n     * @dev Set contract deployer as owner\\n     */\\n    constructor() {\\n        console.log(\\\"Owner contract deployed by:\\\", msg.sender);\\n        owner = msg.sender; // 'msg.sender' is sender of current call, contract deployer for a constructor\\n        emit OwnerSet(address(0), owner);\\n    }\\n\\n    /**\\n     * @dev Change owner\\n     * @param newOwner address of new owner\\n     */\\n    function changeOwner(address newOwner) public isOwner {\\n        emit OwnerSet(owner, newOwner);\\n        owner = newOwner;\\n    }\\n}\"},\"hardhat/console.sol\":{\"content\":\"// SPDX-License-Identifier: MIT\\npragma solidity >= 0.4.22 <0.9.0;\\n\\nlibrary console {\\n\\taddress constant CONSOLE_ADDRESS = address(0x000000000000000000636F6e736F6c652e6c6f67);\\n\\n\\tfunction _sendLogPayload(bytes memory payload) private view {\\n\\t\\tuint256 payloadLength = payload.length;\\n\\t\\taddress consoleAddress = CONSOLE_ADDRESS;\\n\\t\\tassembly {\\n\\t\\t\\tlet payloadStart := add(payload, 32)\\n\\t\\t\\tlet r := staticcall(gas(), consoleAddress, payloadStart, payloadLength, 0, 0)\\n\\t\\t}\\n\\t}\\n\\n\\tfunction log() internal view {\\n\\t\\t_sendLogPayload(abi.encodeWithSignature(\\\"log()\\\"));\\n\\t}\\n\\n\\tfunction logInt(int256 p0) internal view {\\n\\t\\t_sendLogPayload(abi.encodeWithSignature(\\\"log(int256)\\\", p0));\\n\\t}\\n\\n\\tfunction logUint(uint256 p0) internal view {\\n\\t\\t_sendLogPayload(abi.encodeWithSignature(\\\"log(uint256)\\\", p0));\\n\\t}\\n\\n\\tfunction logString(string memory p0) internal view {\\n\\t\\t_sendLogPayload(abi.encodeWithSignature(\\\"log(string)\\\", p0));\\n\\t}\\n\\n\\tfunction logBool(bool p0) internal view {\\n\\t\\t_sendLogPayload(abi.encodeWithSignature(\\\"log(bool)\\\", p0));\\n\\t}\\n\\n\\tfunction logAddress(address p0) internal view {\\n\\t\\t_sendLogPayload(abi.encodeWithSignature(\\\"log(address)\\\", p0));\\n\\t}\\n\\n\\tfunction logBytes(bytes memory p0) internal view {\\n\\t\\t_sendLogPayload(abi.encodeWithSignature(\\\"log(bytes)\\\", p0));\\n\\t}\\n\\n\\tfunction logBytes1(bytes1 p0) internal view {\\n\\t\\t_sendLogPayload(abi.encodeWithSignature(\\\"log(bytes1)\\\", p0));\\n\\t}\\n\\n\\tfunction logBytes2(bytes2 p0) internal view {\\n\\t\\t_sendLogPayload(abi.encodeWithSignature(\\\"log(bytes2)\\\", p0));\\n\\t}\\n\\n\\tfunction logBytes3(bytes3 p0) internal view {\\n\\t\\t_sendLogPayload(abi.encodeWithSignature(\\\"log(bytes3)\\\", p0));\\n\\t}\\n\\n\\tfunction logBytes4(bytes4 p0) internal view {\\n\\t\\t_sendLogPayload(abi.encodeWithSignature(\\\"log(bytes4)\\\", p0));\\n\\t}\\n\\n\\tfunction logBytes5(bytes5 p0) internal view {\\n\\t\\t_sendLogPayload(abi.encodeWithSignature(\\\"log(bytes5)\\\", p0));\\n\\t}\\n\\n\\tfunction logBytes6(bytes6 p0) internal view {\\n\\t\\t_sendLogPayload(abi.encodeWithSignature(\\\"log(bytes6)\\\", p0));\\n\\t}\\n\\n\\tfunction logBytes7(bytes7 p0) internal view {\\n\\t\\t_sendLogPayload(abi.encodeWithSignature(\\\"log(bytes7)\\\", p0));\\n\\t}\\n\\n\\tfunction logBytes8(bytes8 p0) internal view {\\n\\t\\t_sendLogPayload(abi.encodeWithSignature(\\\"log(bytes8)\\\", p0));\\n\\t}\\n\\n\\tfunction logBytes9(bytes9 p0) internal view {\\n\\t\\t_sendLogPayload(abi.encodeWithSignature(\\\"log(bytes9)\\\", p0));\\n\\t}\\n\\n\\tfunction logBytes10(bytes10 p0) internal view {\\n\\t\\t_sendLogPayload(abi.encodeWithSignature(\\\"log(bytes10)\\\", p0));\\n\\t}\\n\\n\\tfunction logBytes11(bytes11 p0) internal view {\\n\\t\\t_sendLogPayload(abi.encodeWithSignature(\\\"log(bytes11)\\\", p0));\\n\\t}\\n\\n\\tfunction logBytes12(bytes12 p0) internal view {\\n\\t\\t_sendLogPayload(abi.encodeWithSignature(\\\"log(bytes12)\\\", p0));\\n\\t}\\n\\n\\tfunction logBytes13(bytes13 p0) internal view {\\n\\t\\t_sendLogPayload(abi.encodeWithSignature(\\\"log(bytes13)\\\", p0));\\n\\t}\\n\\n\\tfunction logBytes14(bytes14 p0) internal view {\\n\\t\\t_sendLogPayload(abi.encodeWithSignature(\\\"log(bytes14)\\\", p0));\\n\\t}\\n\\n\\tfunction logBytes15(bytes15 p0) internal view {\\n\\t\\t_sendLogPayload(abi.encodeWithSignature(\\\"log(bytes15)\\\", p0));\\n\\t}\\n\\n\\tfunction logBytes16(bytes16 p0) internal view {\\n\\t\\t_sendLogPayload(abi.encodeWithSignature(\\\"log(bytes16)\\\", p0));\\n\\t}\\n\\n\\tfunction logBytes17(bytes17 p0) internal view {\\n\\t\\t_sendLogPayload(abi.encodeWithSignature(\\\"log(bytes17)\\\", p0));\\n\\t}\\n\\n\\tfunction logBytes18(bytes18 p0) internal view {\\n\\t\\t_sendLogPayload(abi.encodeWithSignature(\\\"log(bytes18)\\\", p0));\\n\\t}\\n\\n\\tfunction logBytes19(bytes19 p0) internal view {\\n\\t\\t_sendLogPayload(abi.encodeWithSignature(\\\"log(bytes19)\\\", p0));\\n\\t}\\n\\n\\tfunction logBytes20(bytes20 p0) internal view {\\n\\t\\t_sendLogPayload(abi.encodeWithSignature(\\\"log(bytes20)\\\", p0));\\n\\t}\\n\\n\\tfunction logBytes21(bytes21 p0) internal view {\\n\\t\\t_sendLogPayload(abi.encodeWithSignature(\\\"log(bytes21)\\\", p0));\\n\\t}\\n\\n\\tfunction logBytes22(bytes22 p0) internal view {\\n\\t\\t_sendLogPayload(abi.encodeWithSignature(\\\"log(bytes22)\\\", p0));\\n\\t}\\n\\n\\tfunction logBytes23(bytes23 p0) internal view {\\n\\t\\t_sendLogPayload(abi.encodeWithSignature(\\\"log(bytes23)\\\", p0));\\n\\t}\\n\\n\\tfunction logBytes24(bytes24 p0) internal view {\\n\\t\\t_sendLogPayload(abi.encodeWithSignature(\\\"log(bytes24)\\\", p0));\\n\\t}\\n\\n\\tfunction logBytes25(bytes25 p0) internal view {\\n\\t\\t_sendLogPayload(abi.encodeWithSignature(\\\"log(bytes25)\\\", p0));\\n\\t}\\n\\n\\tfunction logBytes26(bytes26 p0) internal view {\\n\\t\\t_sendLogPayload(abi.encodeWithSignature(\\\"log(bytes26)\\\", p0));\\n\\t}\\n\\n\\tfunction logBytes27(bytes27 p0) internal view {\\n\\t\\t_sendLogPayload(abi.encodeWithSignature(\\\"log(bytes27)\\\", p0));\\n\\t}\\n\\n\\tfunction logBytes28(bytes28 p0) internal view {\\n\\t\\t_sendLogPayload(abi.encodeWithSignature(\\\"log(bytes28)\\\", p0));\\n\\t}\\n\\n\\tfunction logBytes29(bytes29 p0) internal view {\\n\\t\\t_sendLogPayload(abi.encodeWithSignature(\\\"log(bytes29)\\\", p0));\\n\\t}\\n\\n\\tfunction logBytes30(bytes30 p0) internal view {\\n\\t\\t_sendLogPayload(abi.encodeWithSignature(\\\"log(bytes30)\\\", p0));\\n\\t}\\n\\n\\tfunction logBytes31(bytes31 p0) internal view {\\n\\t\\t_sendLogPayload(abi.encodeWithSignature(\\\"log(bytes31)\\\", p0));\\n\\t}\\n\\n\\tfunction logBytes32(bytes32 p0) internal view {\\n\\t\\t_sendLogPayload(abi.encodeWithSignature(\\\"log(bytes32)\\\", p0));\\n\\t}\\n\\n\\tfunction log(uint256 p0) internal view {\\n\\t\\t_sendLogPayload(abi.encodeWithSignature(\\\"log(uint256)\\\", p0));\\n\\t}\\n\\n\\tfunction log(string memory p0) internal view {\\n\\t\\t_sendLogPayload(abi.encodeWithSignature(\\\"log(string)\\\", p0));\\n\\t}\\n\\n\\tfunction log(bool p0) internal view {\\n\\t\\t_sendLogPayload(abi.encodeWithSignature(\\\"log(bool)\\\", p0));\\n\\t}\\n\\n\\tfunction log(address p0) internal view {\\n\\t\\t_sendLogPayload(abi.encodeWithSignature(\\\"log(address)\\\", p0));\\n\\t}\\n\\n\\tfunction log(uint256 p0, uint256 p1) internal view {\\n\\t\\t_sendLogPayload(abi.encodeWithSignature(\\\"log(uint256,uint256)\\\", p0, p1));\\n\\t}\\n\\n\\tfunction log(uint256 p0, string memory p1) internal view {\\n\\t\\t_sendLogPayload(abi.encodeWithSignature(\\\"log(uint256,string)\\\", p0, p1));\\n\\t}\\n\\n\\tfunction log(uint256 p0, bool p1) internal view {\\n\\t\\t_sendLogPayload(abi.encodeWithSignature(\\\"log(uint256,bool)\\\", p0, p1));\\n\\t}\\n\\n\\tfunction log(uint256 p0, address p1) internal view {\\n\\t\\t_sendLogPayload(abi.encodeWithSignature(\\\"log(uint256,address)\\\", p0, p1));\\n\\t}\\n\\n\\tfunction log(string memory p0, uint256 p1) internal view {\\n\\t\\t_sendLogPayload(abi.encodeWithSignature(\\\"log(string,uint256)\\\", p0, p1));\\n\\t}\\n\\n\\tfunction log(string memory p0, string memory p1) internal view {\\n\\t\\t_sendLogPayload(abi.encodeWithSignature(\\\"log(string,string)\\\", p0, p1));\\n\\t}\\n\\n\\tfunction log(string memory p0, bool p1) internal view {\\n\\t\\t_sendLogPayload(abi.encodeWithSignature(\\\"log(string,bool)\\\", p0, p1));\\n\\t}\\n\\n\\tfunction log(string memory p0, address p1) internal view {\\n\\t\\t_sendLogPayload(abi.encodeWithSignature(\\\"log(string,address)\\\", p0, p1));\\n\\t}\\n\\n\\tfunction log(bool p0, uint256 p1) internal view {\\n\\t\\t_sendLogPayload(abi.encodeWithSignature(\\\"log(bool,uint256)\\\", p0, p1));\\n\\t}\\n\\n\\tfunction log(bool p0, string memory p1) internal view {\\n\\t\\t_sendLogPayload(abi.encodeWithSignature(\\\"log(bool,string)\\\", p0, p1));\\n\\t}\\n\\n\\tfunction log(bool p0, bool p1) internal view {\\n\\t\\t_sendLogPayload(abi.encodeWithSignature(\\\"log(bool,bool)\\\", p0, p1));\\n\\t}\\n\\n\\tfunction log(bool p0, address p1) internal view {\\n\\t\\t_sendLogPayload(abi.encodeWithSignature(\\\"log(bool,address)\\\", p0, p1));\\n\\t}\\n\\n\\tfunction log(address p0, uint256 p1) internal view {\\n\\t\\t_sendLogPayload(abi.encodeWithSignature(\\\"log(address,uint256)\\\", p0, p1));\\n\\t}\\n\\n\\tfunction log(address p0, string memory p1) internal view {\\n\\t\\t_sendLogPayload(abi.encodeWithSignature(\\\"log(address,string)\\\", p0, p1));\\n\\t}\\n\\n\\tfunction log(address p0, bool p1) internal view {\\n\\t\\t_sendLogPayload(abi.encodeWithSignature(\\\"log(address,bool)\\\", p0, p1));\\n\\t}\\n\\n\\tfunction log(address p0, address p1) internal view {\\n\\t\\t_sendLogPayload(abi.encodeWithSignature(\\\"log(address,address)\\\", p0, p1));\\n\\t}\\n\\n\\tfunction log(uint256 p0, uint256 p1, uint256 p2) internal view {\\n\\t\\t_sendLogPayload(abi.encodeWithSignature(\\\"log(uint256,uint256,uint256)\\\", p0, p1, p2));\\n\\t}\\n\\n\\tfunction log(uint256 p0, uint256 p1, string memory p2) internal view {\\n\\t\\t_sendLogPayload(abi.encodeWithSignature(\\\"log(uint256,uint256,string)\\\", p0, p1, p2));\\n\\t}\\n\\n\\tfunction log(uint256 p0, uint256 p1, bool p2) internal view {\\n\\t\\t_sendLogPayload(abi.encodeWithSignature(\\\"log(uint256,uint256,bool)\\\", p0, p1, p2));\\n\\t}\\n\\n\\tfunction log(uint256 p0, uint256 p1, address p2) internal view {\\n\\t\\t_sendLogPayload(abi.encodeWithSignature(\\\"log(uint256,uint256,address)\\\", p0, p1, p2));\\n\\t}\\n\\n\\tfunction log(uint256 p0, string memory p1, uint256 p2) internal view {\\n\\t\\t_sendLogPayload(abi.encodeWithSignature(\\\"log(uint256,string,uint256)\\\", p0, p1, p2));\\n\\t}\\n\\n\\tfunction log(uint256 p0, string memory p1, string memory p2) internal view {\\n\\t\\t_sendLogPayload(abi.encodeWithSignature(\\\"log(uint256,string,string)\\\", p0, p1, p2));\\n\\t}\\n\\n\\tfunction log(uint256 p0, string memory p1, bool p2) internal view {\\n\\t\\t_sendLogPayload(abi.encodeWithSignature(\\\"log(uint256,string,bool)\\\", p0, p1, p2));\\n\\t}\\n\\n\\tfunction log(uint256 p0, string memory p1, address p2) internal view {\\n\\t\\t_sendLogPayload(abi.encodeWithSignature(\\\"log(uint256,string,address)\\\", p0, p1, p2));\\n\\t}\\n\\n\\tfunction log(uint256 p0, bool p1, uint256 p2) internal view {\\n\\t\\t_sendLogPayload(abi.encodeWithSignature(\\\"log(uint256,bool,uint256)\\\", p0, p1, p2));\\n\\t}\\n\\n\\tfunction log(uint256 p0, bool p1, string memory p2) internal view {\\n\\t\\t_sendLogPayload(abi.encodeWithSignature(\\\"log(uint256,bool,string)\\\", p0, p1, p2));\\n\\t}\\n\\n\\tfunction log(uint256 p0, bool p1, bool p2) internal view {\\n\\t\\t_sendLogPayload(abi.encodeWithSignature(\\\"log(uint256,bool,bool)\\\", p0, p1, p2));\\n\\t}\\n\\n\\tfunction log(uint256 p0, bool p1, address p2) internal view {\\n\\t\\t_sendLogPayload(abi.encodeWithSignature(\\\"log(uint256,bool,address)\\\", p0, p1, p2));\\n\\t}\\n\\n\\tfunction log(uint256 p0, address p1, uint256 p2) internal view {\\n\\t\\t_sendLogPayload(abi.encodeWithSignature(\\\"log(uint256,address,uint256)\\\", p0, p1, p2));\\n\\t}\\n\\n\\tfunction log(uint256 p0, address p1, string memory p2) internal view {\\n\\t\\t_sendLogPayload(abi.encodeWithSignature(\\\"log(uint256,address,string)\\\", p0, p1, p2));\\n\\t}\\n\\n\\tfunction log(uint256 p0, address p1, bool p2) internal view {\\n\\t\\t_sendLogPayload(abi.encodeWithSignature(\\\"log(uint256,address,bool)\\\", p0, p1, p2));\\n\\t}\\n\\n\\tfunction log(uint256 p0, address p1, address p2) internal view {\\n\\t\\t_sendLogPayload(abi.encodeWithSignature(\\\"log(uint256,address,address)\\\", p0, p1, p2));\\n\\t}\\n\\n\\tfunction log(string memory p0, uint256 p1, uint256 p2) internal view {\\n\\t\\t_sendLogPayload(abi.encodeWithSignature(\\\"log(string,uint256,uint256)\\\", p0, p1, p2));\\n\\t}\\n\\n\\tfunction log(string memory p0, uint256 p1, string memory p2) internal view {\\n\\t\\t_sendLogPayload(abi.encodeWithSignature(\\\"log(string,uint256,string)\\\", p0, p1, p2));\\n\\t}\\n\\n\\tfunction log(string memory p0, uint256 p1, bool p2) internal view {\\n\\t\\t_sendLogPayload(abi.encodeWithSignature(\\\"log(string,uint256,bool)\\\", p0, p1, p2));\\n\\t}\\n\\n\\tfunction log(string memory p0, uint256 p1, address p2) internal view {\\n\\t\\t_sendLogPayload(abi.encodeWithSignature(\\\"log(string,uint256,address)\\\", p0, p1, p2));\\n\\t}\\n\\n\\tfunction log(string memory p0, string memory p1, uint256 p2) internal view {\\n\\t\\t_sendLogPayload(abi.encodeWithSignature(\\\"log(string,string,uint256)\\\", p0, p1, p2));\\n\\t}\\n\\n\\tfunction log(string memory p0, string memory p1, string memory p2) internal view {\\n\\t\\t_sendLogPayload(abi.encodeWithSignature(\\\"log(string,string,string)\\\", p0, p1, p2));\\n\\t}\\n\\n\\tfunction log(string memory p0, string memory p1, bool p2) internal view {\\n\\t\\t_sendLogPayload(abi.encodeWithSignature(\\\"log(string,string,bool)\\\", p0, p1, p2));\\n\\t}\\n\\n\\tfunction log(string memory p0, string memory p1, address p2) internal view {\\n\\t\\t_sendLogPayload(abi.encodeWithSignature(\\\"log(string,string,address)\\\", p0, p1, p2));\\n\\t}\\n\\n\\tfunction log(string memory p0, bool p1, uint256 p2) internal view {\\n\\t\\t_sendLogPayload(abi.encodeWithSignature(\\\"log(string,bool,uint256)\\\", p0, p1, p2));\\n\\t}\\n\\n\\tfunction log(string memory p0, bool p1, string memory p2) internal view {\\n\\t\\t_sendLogPayload(abi.encodeWithSignature(\\\"log(string,bool,string)\\\", p0, p1, p2));\\n\\t}\\n\\n\\tfunction log(string memory p0, bool p1, bool p2) internal view {\\n\\t\\t_sendLogPayload(abi.encodeWithSignature(\\\"log(string,bool,bool)\\\", p0, p1, p2));\\n\\t}\\n\\n\\tfunction log(string memory p0, bool p1, address p2) internal view {\\n\\t\\t_sendLogPayload(abi.encodeWithSignature(\\\"log(string,bool,address)\\\", p0, p1, p2));\\n\\t}\\n\\n\\tfunction log(string memory p0, address p1, uint256 p2) internal view {\\n\\t\\t_sendLogPayload(abi.encodeWithSignature(\\\"log(string,address,uint256)\\\", p0, p1, p2));\\n\\t}\\n\\n\\tfunction log(string memory p0, address p1, string memory p2) internal view {\\n\\t\\t_sendLogPayload(abi.encodeWithSignature(\\\"log(string,address,string)\\\", p0, p1, p2));\\n\\t}\\n\\n\\tfunction log(string memory p0, address p1, bool p2) internal view {\\n\\t\\t_sendLogPayload(abi.encodeWithSignature(\\\"log(string,address,bool)\\\", p0, p1, p2));\\n\\t}\\n\\n\\tfunction log(string memory p0, address p1, address p2) internal view {\\n\\t\\t_sendLogPayload(abi.encodeWithSignature(\\\"log(string,address,address)\\\", p0, p1, p2));\\n\\t}\\n\\n\\tfunction log(bool p0, uint256 p1, uint256 p2) internal view {\\n\\t\\t_sendLogPayload(abi.encodeWithSignature(\\\"log(bool,uint256,uint256)\\\", p0, p1, p2));\\n\\t}\\n\\n\\tfunction log(bool p0, uint256 p1, string memory p2) internal view {\\n\\t\\t_sendLogPayload(abi.encodeWithSignature(\\\"log(bool,uint256,string)\\\", p0, p1, p2));\\n\\t}\\n\\n\\tfunction log(bool p0, uint256 p1, bool p2) internal view {\\n\\t\\t_sendLogPayload(abi.encodeWithSignature(\\\"log(bool,uint256,bool)\\\", p0, p1, p2));\\n\\t}\\n\\n\\tfunction log(bool p0, uint256 p1, address p2) internal view {\\n\\t\\t_sendLogPayload(abi.encodeWithSignature(\\\"log(bool,uint256,address)\\\", p0, p1, p2));\\n\\t}\\n\\n\\tfunction log(bool p0, string memory p1, uint256 p2) internal view {\\n\\t\\t_sendLogPayload(abi.encodeWithSignature(\\\"log(bool,string,uint256)\\\", p0, p1, p2));\\n\\t}\\n\\n\\tfunction log(bool p0, string memory p1, string memory p2) internal view {\\n\\t\\t_sendLogPayload(abi.encodeWithSignature(\\\"log(bool,string,string)\\\", p0, p1, p2));\\n\\t}\\n\\n\\tfunction log(bool p0, string memory p1, bool p2) internal view {\\n\\t\\t_sendLogPayload(abi.encodeWithSignature(\\\"log(bool,string,bool)\\\", p0, p1, p2));\\n\\t}\\n\\n\\tfunction log(bool p0, string memory p1, address p2) internal view {\\n\\t\\t_sendLogPayload(abi.encodeWithSignature(\\\"log(bool,string,address)\\\", p0, p1, p2));\\n\\t}\\n\\n\\tfunction log(bool p0, bool p1, uint256 p2) internal view {\\n\\t\\t_sendLogPayload(abi.encodeWithSignature(\\\"log(bool,bool,uint256)\\\", p0, p1, p2));\\n\\t}\\n\\n\\tfunction log(bool p0, bool p1, string memory p2) internal view {\\n\\t\\t_sendLogPayload(abi.encodeWithSignature(\\\"log(bool,bool,string)\\\", p0, p1, p2));\\n\\t}\\n\\n\\tfunction log(bool p0, bool p1, bool p2) internal view {\\n\\t\\t_sendLogPayload(abi.encodeWithSignature(\\\"log(bool,bool,bool)\\\", p0, p1, p2));\\n\\t}\\n\\n\\tfunction log(bool p0, bool p1, address p2) internal view {\\n\\t\\t_sendLogPayload(abi.encodeWithSignature(\\\"log(bool,bool,address)\\\", p0, p1, p2));\\n\\t}\\n\\n\\tfunction log(bool p0, address p1, uint256 p2) internal view {\\n\\t\\t_sendLogPayload(abi.encodeWithSignature(\\\"log(bool,address,uint256)\\\", p0, p1, p2));\\n\\t}\\n\\n\\tfunction log(bool p0, address p1, string memory p2) internal view {\\n\\t\\t_sendLogPayload(abi.encodeWithSignature(\\\"log(bool,address,string)\\\", p0, p1, p2));\\n\\t}\\n\\n\\tfunction log(bool p0, address p1, bool p2) internal view {\\n\\t\\t_sendLogPayload(abi.encodeWithSignature(\\\"log(bool,address,bool)\\\", p0, p1, p2));\\n\\t}\\n\\n\\tfunction log(bool p0, address p1, address p2) internal view {\\n\\t\\t_sendLogPayload(abi.encodeWithSignature(\\\"log(bool,address,address)\\\", p0, p1, p2));\\n\\t}\\n\\n\\tfunction log(address p0, uint256 p1, uint256 p2) internal view {\\n\\t\\t_sendLogPayload(abi.encodeWithSignature(\\\"log(address,uint256,uint256)\\\", p0, p1, p2));\\n\\t}\\n\\n\\tfunction log(address p0, uint256 p1, string memory p2) internal view {\\n\\t\\t_sendLogPayload(abi.encodeWithSignature(\\\"log(address,uint256,string)\\\", p0, p1, p2));\\n\\t}\\n\\n\\tfunction log(address p0, uint256 p1, bool p2) internal view {\\n\\t\\t_sendLogPayload(abi.encodeWithSignature(\\\"log(address,uint256,bool)\\\", p0, p1, p2));\\n\\t}\\n\\n\\tfunction log(address p0, uint256 p1, address p2) internal view {\\n\\t\\t_sendLogPayload(abi.encodeWithSignature(\\\"log(address,uint256,address)\\\", p0, p1, p2));\\n\\t}\\n\\n\\tfunction log(address p0, string memory p1, uint256 p2) internal view {\\n\\t\\t_sendLogPayload(abi.encodeWithSignature(\\\"log(address,string,uint256)\\\", p0, p1, p2));\\n\\t}\\n\\n\\tfunction log(address p0, string memory p1, string memory p2) internal view {\\n\\t\\t_sendLogPayload(abi.encodeWithSignature(\\\"log(address,string,string)\\\", p0, p1, p2));\\n\\t}\\n\\n\\tfunction log(address p0, string memory p1, bool p2) internal view {\\n\\t\\t_sendLogPayload(abi.encodeWithSignature(\\\"log(address,string,bool)\\\", p0, p1, p2));\\n\\t}\\n\\n\\tfunction log(address p0, string memory p1, address p2) internal view {\\n\\t\\t_sendLogPayload(abi.encodeWithSignature(\\\"log(address,string,address)\\\", p0, p1, p2));\\n\\t}\\n\\n\\tfunction log(address p0, bool p1, uint256 p2) internal view {\\n\\t\\t_sendLogPayload(abi.encodeWithSignature(\\\"log(address,bool,uint256)\\\", p0, p1, p2));\\n\\t}\\n\\n\\tfunction log(address p0, bool p1, string memory p2) internal view {\\n\\t\\t_sendLogPayload(abi.encodeWithSignature(\\\"log(address,bool,string)\\\", p0, p1, p2));\\n\\t}\\n\\n\\tfunction log(address p0, bool p1, bool p2) internal view {\\n\\t\\t_sendLogPayload(abi.encodeWithSignature(\\\"log(address,bool,bool)\\\", p0, p1, p2));\\n\\t}\\n\\n\\tfunction log(address p0, bool p1, address p2) internal view {\\n\\t\\t_sendLogPayload(abi.encodeWithSignature(\\\"log(address,bool,address)\\\", p0, p1, p2));\\n\\t}\\n\\n\\tfunction log(address p0, address p1, uint256 p2) internal view {\\n\\t\\t_sendLogPayload(abi.encodeWithSignature(\\\"log(address,address,uint256)\\\", p0, p1, p2));\\n\\t}\\n\\n\\tfunction log(address p0, address p1, string memory p2) internal view {\\n\\t\\t_sendLogPayload(abi.encodeWithSignature(\\\"log(address,address,string)\\\", p0, p1, p2));\\n\\t}\\n\\n\\tfunction log(address p0, address p1, bool p2) internal view {\\n\\t\\t_sendLogPayload(abi.encodeWithSignature(\\\"log(address,address,bool)\\\", p0, p1, p2));\\n\\t}\\n\\n\\tfunction log(address p0, address p1, address p2) internal view {\\n\\t\\t_sendLogPayload(abi.encodeWithSignature(\\\"log(address,address,address)\\\", p0, p1, p2));\\n\\t}\\n\\n\\tfunction log(uint256 p0, uint256 p1, uint256 p2, uint256 p3) internal view {\\n\\t\\t_sendLogPayload(abi.encodeWithSignature(\\\"log(uint256,uint256,uint256,uint256)\\\", p0, p1, p2, p3));\\n\\t}\\n\\n\\tfunction log(uint256 p0, uint256 p1, uint256 p2, string memory p3) internal view {\\n\\t\\t_sendLogPayload(abi.encodeWithSignature(\\\"log(uint256,uint256,uint256,string)\\\", p0, p1, p2, p3));\\n\\t}\\n\\n\\tfunction log(uint256 p0, uint256 p1, uint256 p2, bool p3) internal view {\\n\\t\\t_sendLogPayload(abi.encodeWithSignature(\\\"log(uint256,uint256,uint256,bool)\\\", p0, p1, p2, p3));\\n\\t}\\n\\n\\tfunction log(uint256 p0, uint256 p1, uint256 p2, address p3) internal view {\\n\\t\\t_sendLogPayload(abi.encodeWithSignature(\\\"log(uint256,uint256,uint256,address)\\\", p0, p1, p2, p3));\\n\\t}\\n\\n\\tfunction log(uint256 p0, uint256 p1, string memory p2, uint256 p3) internal view {\\n\\t\\t_sendLogPayload(abi.encodeWithSignature(\\\"log(uint256,uint256,string,uint256)\\\", p0, p1, p2, p3));\\n\\t}\\n\\n\\tfunction log(uint256 p0, uint256 p1, string memory p2, string memory p3) internal view {\\n\\t\\t_sendLogPayload(abi.encodeWithSignature(\\\"log(uint256,uint256,string,string)\\\", p0, p1, p2, p3));\\n\\t}\\n\\n\\tfunction log(uint256 p0, uint256 p1, string memory p2, bool p3) internal view {\\n\\t\\t_sendLogPayload(abi.encodeWithSignature(\\\"log(uint256,uint256,string,bool)\\\", p0, p1, p2, p3));\\n\\t}\\n\\n\\tfunction log(uint256 p0, uint256 p1, string memory p2, address p3) internal view {\\n\\t\\t_sendLogPayload(abi.encodeWithSignature(\\\"log(uint256,uint256,string,address)\\\", p0, p1, p2, p3));\\n\\t}\\n\\n\\tfunction log(uint256 p0, uint256 p1, bool p2, uint256 p3) internal view {\\n\\t\\t_sendLogPayload(abi.encodeWithSignature(\\\"log(uint256,uint256,bool,uint256)\\\", p0, p1, p2, p3));\\n\\t}\\n\\n\\tfunction log(uint256 p0, uint256 p1, bool p2, string memory p3) internal view {\\n\\t\\t_sendLogPayload(abi.encodeWithSignature(\\\"log(uint256,uint256,bool,string)\\\", p0, p1, p2, p3));\\n\\t}\\n\\n\\tfunction log(uint256 p0, uint256 p1, bool p2, bool p3) internal view {\\n\\t\\t_sendLogPayload(abi.encodeWithSignature(\\\"log(uint256,uint256,bool,bool)\\\", p0, p1, p2, p3));\\n\\t}\\n\\n\\tfunction log(uint256 p0, uint256 p1, bool p2, address p3) internal view {\\n\\t\\t_sendLogPayload(abi.encodeWithSignature(\\\"log(uint256,uint256,bool,address)\\\", p0, p1, p2, p3));\\n\\t}\\n\\n\\tfunction log(uint256 p0, uint256 p1, address p2, uint256 p3) internal view {\\n\\t\\t_sendLogPayload(abi.encodeWithSignature(\\\"log(uint256,uint256,address,uint256)\\\", p0, p1, p2, p3));\\n\\t}\\n\\n\\tfunction log(uint256 p0, uint256 p1, address p2, string memory p3) internal view {\\n\\t\\t_sendLogPayload(abi.encodeWithSignature(\\\"log(uint256,uint256,address,string)\\\", p0, p1, p2, p3));\\n\\t}\\n\\n\\tfunction log(uint256 p0, uint256 p1, address p2, bool p3) internal view {\\n\\t\\t_sendLogPayload(abi.encodeWithSignature(\\\"log(uint256,uint256,address,bool)\\\", p0, p1, p2, p3));\\n\\t}\\n\\n\\tfunction log(uint256 p0, uint256 p1, address p2, address p3) internal view {\\n\\t\\t_sendLogPayload(abi.encodeWithSignature(\\\"log(uint256,uint256,address,address)\\\", p0, p1, p2, p3));\\n\\t}\\n\\n\\tfunction log(uint256 p0, string memory p1, uint256 p2, uint256 p3) internal view {\\n\\t\\t_sendLogPayload(abi.encodeWithSignature(\\\"log(uint256,string,uint256,uint256)\\\", p0, p1, p2, p3));\\n\\t}\\n\\n\\tfunction log(uint256 p0, string memory p1, uint256 p2, string memory p3) internal view {\\n\\t\\t_sendLogPayload(abi.encodeWithSignature(\\\"log(uint256,string,uint256,string)\\\", p0, p1, p2, p3));\\n\\t}\\n\\n\\tfunction log(uint256 p0, string memory p1, uint256 p2, bool p3) internal view {\\n\\t\\t_sendLogPayload(abi.encodeWithSignature(\\\"log(uint256,string,uint256,bool)\\\", p0, p1, p2, p3));\\n\\t}\\n\\n\\tfunction log(uint256 p0, string memory p1, uint256 p2, address p3) internal view {\\n\\t\\t_sendLogPayload(abi.encodeWithSignature(\\\"log(uint256,string,uint256,address)\\\", p0, p1, p2, p3));\\n\\t}\\n\\n\\tfunction log(uint256 p0, string memory p1, string memory p2, uint256 p3) internal view {\\n\\t\\t_sendLogPayload(abi.encodeWithSignature(\\\"log(uint256,string,string,uint256)\\\", p0, p1, p2, p3));\\n\\t}\\n\\n\\tfunction log(uint256 p0, string memory p1, string memory p2, string memory p3) internal view {\\n\\t\\t_sendLogPayload(abi.encodeWithSignature(\\\"log(uint256,string,string,string)\\\", p0, p1, p2, p3));\\n\\t}\\n\\n\\tfunction log(uint256 p0, string memory p1, string memory p2, bool p3) internal view {\\n\\t\\t_sendLogPayload(abi.encodeWithSignature(\\\"log(uint256,string,string,bool)\\\", p0, p1, p2, p3));\\n\\t}\\n\\n\\tfunction log(uint256 p0, string memory p1, string memory p2, address p3) internal view {\\n\\t\\t_sendLogPayload(abi.encodeWithSignature(\\\"log(uint256,string,string,address)\\\", p0, p1, p2, p3));\\n\\t}\\n\\n\\tfunction log(uint256 p0, string memory p1, bool p2, uint256 p3) internal view {\\n\\t\\t_sendLogPayload(abi.encodeWithSignature(\\\"log(uint256,string,bool,uint256)\\\", p0, p1, p2, p3));\\n\\t}\\n\\n\\tfunction log(uint256 p0, string memory p1, bool p2, string memory p3) internal view {\\n\\t\\t_sendLogPayload(abi.encodeWithSignature(\\\"log(uint256,string,bool,string)\\\", p0, p1, p2, p3));\\n\\t}\\n\\n\\tfunction log(uint256 p0, string memory p1, bool p2, bool p3) internal view {\\n\\t\\t_sendLogPayload(abi.encodeWithSignature(\\\"log(uint256,string,bool,bool)\\\", p0, p1, p2, p3));\\n\\t}\\n\\n\\tfunction log(uint256 p0, string memory p1, bool p2, address p3) internal view {\\n\\t\\t_sendLogPayload(abi.encodeWithSignature(\\\"log(uint256,string,bool,address)\\\", p0, p1, p2, p3));\\n\\t}\\n\\n\\tfunction log(uint256 p0, string memory p1, address p2, uint256 p3) internal view {\\n\\t\\t_sendLogPayload(abi.encodeWithSignature(\\\"log(uint256,string,address,uint256)\\\", p0, p1, p2, p3));\\n\\t}\\n\\n\\tfunction log(uint256 p0, string memory p1, address p2, string memory p3) internal view {\\n\\t\\t_sendLogPayload(abi.encodeWithSignature(\\\"log(uint256,string,address,string)\\\", p0, p1, p2, p3));\\n\\t}\\n\\n\\tfunction log(uint256 p0, string memory p1, address p2, bool p3) internal view {\\n\\t\\t_sendLogPayload(abi.encodeWithSignature(\\\"log(uint256,string,address,bool)\\\", p0, p1, p2, p3));\\n\\t}\\n\\n\\tfunction log(uint256 p0, string memory p1, address p2, address p3) internal view {\\n\\t\\t_sendLogPayload(abi.encodeWithSignature(\\\"log(uint256,string,address,address)\\\", p0, p1, p2, p3));\\n\\t}\\n\\n\\tfunction log(uint256 p0, bool p1, uint256 p2, uint256 p3) internal view {\\n\\t\\t_sendLogPayload(abi.encodeWithSignature(\\\"log(uint256,bool,uint256,uint256)\\\", p0, p1, p2, p3));\\n\\t}\\n\\n\\tfunction log(uint256 p0, bool p1, uint256 p2, string memory p3) internal view {\\n\\t\\t_sendLogPayload(abi.encodeWithSignature(\\\"log(uint256,bool,uint256,string)\\\", p0, p1, p2, p3));\\n\\t}\\n\\n\\tfunction log(uint256 p0, bool p1, uint256 p2, bool p3) internal view {\\n\\t\\t_sendLogPayload(abi.encodeWithSignature(\\\"log(uint256,bool,uint256,bool)\\\", p0, p1, p2, p3));\\n\\t}\\n\\n\\tfunction log(uint256 p0, bool p1, uint256 p2, address p3) internal view {\\n\\t\\t_sendLogPayload(abi.encodeWithSignature(\\\"log(uint256,bool,uint256,address)\\\", p0, p1, p2, p3));\\n\\t}\\n\\n\\tfunction log(uint256 p0, bool p1, string memory p2, uint256 p3) internal view {\\n\\t\\t_sendLogPayload(abi.encodeWithSignature(\\\"log(uint256,bool,string,uint256)\\\", p0, p1, p2, p3));\\n\\t}\\n\\n\\tfunction log(uint256 p0, bool p1, string memory p2, string memory p3) internal view {\\n\\t\\t_sendLogPayload(abi.encodeWithSignature(\\\"log(uint256,bool,string,string)\\\", p0, p1, p2, p3));\\n\\t}\\n\\n\\tfunction log(uint256 p0, bool p1, string memory p2, bool p3) internal view {\\n\\t\\t_sendLogPayload(abi.encodeWithSignature(\\\"log(uint256,bool,string,bool)\\\", p0, p1, p2, p3));\\n\\t}\\n\\n\\tfunction log(uint256 p0, bool p1, string memory p2, address p3) internal view {\\n\\t\\t_sendLogPayload(abi.encodeWithSignature(\\\"log(uint256,bool,string,address)\\\", p0, p1, p2, p3));\\n\\t}\\n\\n\\tfunction log(uint256 p0, bool p1, bool p2, uint256 p3) internal view {\\n\\t\\t_sendLogPayload(abi.encodeWithSignature(\\\"log(uint256,bool,bool,uint256)\\\", p0, p1, p2, p3));\\n\\t}\\n\\n\\tfunction log(uint256 p0, bool p1, bool p2, string memory p3) internal view {\\n\\t\\t_sendLogPayload(abi.encodeWithSignature(\\\"log(uint256,bool,bool,string)\\\", p0, p1, p2, p3));\\n\\t}\\n\\n\\tfunction log(uint256 p0, bool p1, bool p2, bool p3) internal view {\\n\\t\\t_sendLogPayload(abi.encodeWithSignature(\\\"log(uint256,bool,bool,bool)\\\", p0, p1, p2, p3));\\n\\t}\\n\\n\\tfunction log(uint256 p0, bool p1, bool p2, address p3) internal view {\\n\\t\\t_sendLogPayload(abi.encodeWithSignature(\\\"log(uint256,bool,bool,address)\\\", p0, p1, p2, p3));\\n\\t}\\n\\n\\tfunction log(uint256 p0, bool p1, address p2, uint256 p3) internal view {\\n\\t\\t_sendLogPayload(abi.encodeWithSignature(\\\"log(uint256,bool,address,uint256)\\\", p0, p1, p2, p3));\\n\\t}\\n\\n\\tfunction log(uint256 p0, bool p1, address p2, string memory p3) internal view {\\n\\t\\t_sendLogPayload(abi.encodeWithSignature(\\\"log(uint256,bool,address,string)\\\", p0, p1, p2, p3));\\n\\t}\\n\\n\\tfunction log(uint256 p0, bool p1, address p2, bool p3) internal view {\\n\\t\\t_sendLogPayload(abi.encodeWithSignature(\\\"log(uint256,bool,address,bool)\\\", p0, p1, p2, p3));\\n\\t}\\n\\n\\tfunction log(uint256 p0, bool p1, address p2, address p3) internal view {\\n\\t\\t_sendLogPayload(abi.encodeWithSignature(\\\"log(uint256,bool,address,address)\\\", p0, p1, p2, p3));\\n\\t}\\n\\n\\tfunction log(uint256 p0, address p1, uint256 p2, uint256 p3) internal view {\\n\\t\\t_sendLogPayload(abi.encodeWithSignature(\\\"log(uint256,address,uint256,uint256)\\\", p0, p1, p2, p3));\\n\\t}\\n\\n\\tfunction log(uint256 p0, address p1, uint256 p2, string memory p3) internal view {\\n\\t\\t_sendLogPayload(abi.encodeWithSignature(\\\"log(uint256,address,uint256,string)\\\", p0, p1, p2, p3));\\n\\t}\\n\\n\\tfunction log(uint256 p0, address p1, uint256 p2, bool p3) internal view {\\n\\t\\t_sendLogPayload(abi.encodeWithSignature(\\\"log(uint256,address,uint256,bool)\\\", p0, p1, p2, p3));\\n\\t}\\n\\n\\tfunction log(uint256 p0, address p1, uint256 p2, address p3) internal view {\\n\\t\\t_sendLogPayload(abi.encodeWithSignature(\\\"log(uint256,address,uint256,address)\\\", p0, p1, p2, p3));\\n\\t}\\n\\n\\tfunction log(uint256 p0, address p1, string memory p2, uint256 p3) internal view {\\n\\t\\t_sendLogPayload(abi.encodeWithSignature(\\\"log(uint256,address,string,uint256)\\\", p0, p1, p2, p3));\\n\\t}\\n\\n\\tfunction log(uint256 p0, address p1, string memory p2, string memory p3) internal view {\\n\\t\\t_sendLogPayload(abi.encodeWithSignature(\\\"log(uint256,address,string,string)\\\", p0, p1, p2, p3));\\n\\t}\\n\\n\\tfunction log(uint256 p0, address p1, string memory p2, bool p3) internal view {\\n\\t\\t_sendLogPayload(abi.encodeWithSignature(\\\"log(uint256,address,string,bool)\\\", p0, p1, p2, p3));\\n\\t}\\n\\n\\tfunction log(uint256 p0, address p1, string memory p2, address p3) internal view {\\n\\t\\t_sendLogPayload(abi.encodeWithSignature(\\\"log(uint256,address,string,address)\\\", p0, p1, p2, p3));\\n\\t}\\n\\n\\tfunction log(uint256 p0, address p1, bool p2, uint256 p3) internal view {\\n\\t\\t_sendLogPayload(abi.encodeWithSignature(\\\"log(uint256,address,bool,uint256)\\\", p0, p1, p2, p3));\\n\\t}\\n\\n\\tfunction log(uint256 p0, address p1, bool p2, string memory p3) internal view {\\n\\t\\t_sendLogPayload(abi.encodeWithSignature(\\\"log(uint256,address,bool,string)\\\", p0, p1, p2, p3));\\n\\t}\\n\\n\\tfunction log(uint256 p0, address p1, bool p2, bool p3) internal view {\\n\\t\\t_sendLogPayload(abi.encodeWithSignature(\\\"log(uint256,address,bool,bool)\\\", p0, p1, p2, p3));\\n\\t}\\n\\n\\tfunction log(uint256 p0, address p1, bool p2, address p3) internal view {\\n\\t\\t_sendLogPayload(abi.encodeWithSignature(\\\"log(uint256,address,bool,address)\\\", p0, p1, p2, p3));\\n\\t}\\n\\n\\tfunction log(uint256 p0, address p1, address p2, uint256 p3) internal view {\\n\\t\\t_sendLogPayload(abi.encodeWithSignature(\\\"log(uint256,address,address,uint256)\\\", p0, p1, p2, p3));\\n\\t}\\n\\n\\tfunction log(uint256 p0, address p1, address p2, string memory p3) internal view {\\n\\t\\t_sendLogPayload(abi.encodeWithSignature(\\\"log(uint256,address,address,string)\\\", p0, p1, p2, p3));\\n\\t}\\n\\n\\tfunction log(uint256 p0, address p1, address p2, bool p3) internal view {\\n\\t\\t_sendLogPayload(abi.encodeWithSignature(\\\"log(uint256,address,address,bool)\\\", p0, p1, p2, p3));\\n\\t}\\n\\n\\tfunction log(uint256 p0, address p1, address p2, address p3) internal view {\\n\\t\\t_sendLogPayload(abi.encodeWithSignature(\\\"log(uint256,address,address,address)\\\", p0, p1, p2, p3));\\n\\t}\\n\\n\\tfunction log(string memory p0, uint256 p1, uint256 p2, uint256 p3) internal view {\\n\\t\\t_sendLogPayload(abi.encodeWithSignature(\\\"log(string,uint256,uint256,uint256)\\\", p0, p1, p2, p3));\\n\\t}\\n\\n\\tfunction log(string memory p0, uint256 p1, uint256 p2, string memory p3) internal view {\\n\\t\\t_sendLogPayload(abi.encodeWithSignature(\\\"log(string,uint256,uint256,string)\\\", p0, p1, p2, p3));\\n\\t}\\n\\n\\tfunction log(string memory p0, uint256 p1, uint256 p2, bool p3) internal view {\\n\\t\\t_sendLogPayload(abi.encodeWithSignature(\\\"log(string,uint256,uint256,bool)\\\", p0, p1, p2, p3));\\n\\t}\\n\\n\\tfunction log(string memory p0, uint256 p1, uint256 p2, address p3) internal view {\\n\\t\\t_sendLogPayload(abi.encodeWithSignature(\\\"log(string,uint256,uint256,address)\\\", p0, p1, p2, p3));\\n\\t}\\n\\n\\tfunction log(string memory p0, uint256 p1, string memory p2, uint256 p3) internal view {\\n\\t\\t_sendLogPayload(abi.encodeWithSignature(\\\"log(string,uint256,string,uint256)\\\", p0, p1, p2, p3));\\n\\t}\\n\\n\\tfunction log(string memory p0, uint256 p1, string memory p2, string memory p3) internal view {\\n\\t\\t_sendLogPayload(abi.encodeWithSignature(\\\"log(string,uint256,string,string)\\\", p0, p1, p2, p3));\\n\\t}\\n\\n\\tfunction log(string memory p0, uint256 p1, string memory p2, bool p3) internal view {\\n\\t\\t_sendLogPayload(abi.encodeWithSignature(\\\"log(string,uint256,string,bool)\\\", p0, p1, p2, p3));\\n\\t}\\n\\n\\tfunction log(string memory p0, uint256 p1, string memory p2, address p3) internal view {\\n\\t\\t_sendLogPayload(abi.encodeWithSignature(\\\"log(string,uint256,string,address)\\\", p0, p1, p2, p3));\\n\\t}\\n\\n\\tfunction log(string memory p0, uint256 p1, bool p2, uint256 p3) internal view {\\n\\t\\t_sendLogPayload(abi.encodeWithSignature(\\\"log(string,uint256,bool,uint256)\\\", p0, p1, p2, p3));\\n\\t}\\n\\n\\tfunction log(string memory p0, uint256 p1, bool p2, string memory p3) internal view {\\n\\t\\t_sendLogPayload(abi.encodeWithSignature(\\\"log(string,uint256,bool,string)\\\", p0, p1, p2, p3));\\n\\t}\\n\\n\\tfunction log(string memory p0, uint256 p1, bool p2, bool p3) internal view {\\n\\t\\t_sendLogPayload(abi.encodeWithSignature(\\\"log(string,uint256,bool,bool)\\\", p0, p1, p2, p3));\\n\\t}\\n\\n\\tfunction log(string memory p0, uint256 p1, bool p2, address p3) internal view {\\n\\t\\t_sendLogPayload(abi.encodeWithSignature(\\\"log(string,uint256,bool,address)\\\", p0, p1, p2, p3));\\n\\t}\\n\\n\\tfunction log(string memory p0, uint256 p1, address p2, uint256 p3) internal view {\\n\\t\\t_sendLogPayload(abi.encodeWithSignature(\\\"log(string,uint256,address,uint256)\\\", p0, p1, p2, p3));\\n\\t}\\n\\n\\tfunction log(string memory p0, uint256 p1, address p2, string memory p3) internal view {\\n\\t\\t_sendLogPayload(abi.encodeWithSignature(\\\"log(string,uint256,address,string)\\\", p0, p1, p2, p3));\\n\\t}\\n\\n\\tfunction log(string memory p0, uint256 p1, address p2, bool p3) internal view {\\n\\t\\t_sendLogPayload(abi.encodeWithSignature(\\\"log(string,uint256,address,bool)\\\", p0, p1, p2, p3));\\n\\t}\\n\\n\\tfunction log(string memory p0, uint256 p1, address p2, address p3) internal view {\\n\\t\\t_sendLogPayload(abi.encodeWithSignature(\\\"log(string,uint256,address,address)\\\", p0, p1, p2, p3));\\n\\t}\\n\\n\\tfunction log(string memory p0, string memory p1, uint256 p2, uint256 p3) internal view {\\n\\t\\t_sendLogPayload(abi.encodeWithSignature(\\\"log(string,string,uint256,uint256)\\\", p0, p1, p2, p3));\\n\\t}\\n\\n\\tfunction log(string memory p0, string memory p1, uint256 p2, string memory p3) internal view {\\n\\t\\t_sendLogPayload(abi.encodeWithSignature(\\\"log(string,string,uint256,string)\\\", p0, p1, p2, p3));\\n\\t}\\n\\n\\tfunction log(string memory p0, string memory p1, uint256 p2, bool p3) internal view {\\n\\t\\t_sendLogPayload(abi.encodeWithSignature(\\\"log(string,string,uint256,bool)\\\", p0, p1, p2, p3));\\n\\t}\\n\\n\\tfunction log(string memory p0, string memory p1, uint256 p2, address p3) internal view {\\n\\t\\t_sendLogPayload(abi.encodeWithSignature(\\\"log(string,string,uint256,address)\\\", p0, p1, p2, p3));\\n\\t}\\n\\n\\tfunction log(string memory p0, string memory p1, string memory p2, uint256 p3) internal view {\\n\\t\\t_sendLogPayload(abi.encodeWithSignature(\\\"log(string,string,string,uint256)\\\", p0, p1, p2, p3));\\n\\t}\\n\\n\\tfunction log(string memory p0, string memory p1, string memory p2, string memory p3) internal view {\\n\\t\\t_sendLogPayload(abi.encodeWithSignature(\\\"log(string,string,string,string)\\\", p0, p1, p2, p3));\\n\\t}\\n\\n\\tfunction log(string memory p0, string memory p1, string memory p2, bool p3) internal view {\\n\\t\\t_sendLogPayload(abi.encodeWithSignature(\\\"log(string,string,string,bool)\\\", p0, p1, p2, p3));\\n\\t}\\n\\n\\tfunction log(string memory p0, string memory p1, string memory p2, address p3) internal view {\\n\\t\\t_sendLogPayload(abi.encodeWithSignature(\\\"log(string,string,string,address)\\\", p0, p1, p2, p3));\\n\\t}\\n\\n\\tfunction log(string memory p0, string memory p1, bool p2, uint256 p3) internal view {\\n\\t\\t_sendLogPayload(abi.encodeWithSignature(\\\"log(string,string,bool,uint256)\\\", p0, p1, p2, p3));\\n\\t}\\n\\n\\tfunction log(string memory p0, string memory p1, bool p2, string memory p3) internal view {\\n\\t\\t_sendLogPayload(abi.encodeWithSignature(\\\"log(string,string,bool,string)\\\", p0, p1, p2, p3));\\n\\t}\\n\\n\\tfunction log(string memory p0, string memory p1, bool p2, bool p3) internal view {\\n\\t\\t_sendLogPayload(abi.encodeWithSignature(\\\"log(string,string,bool,bool)\\\", p0, p1, p2, p3));\\n\\t}\\n\\n\\tfunction log(string memory p0, string memory p1, bool p2, address p3) internal view {\\n\\t\\t_sendLogPayload(abi.encodeWithSignature(\\\"log(string,string,bool,address)\\\", p0, p1, p2, p3));\\n\\t}\\n\\n\\tfunction log(string memory p0, string memory p1, address p2, uint256 p3) internal view {\\n\\t\\t_sendLogPayload(abi.encodeWithSignature(\\\"log(string,string,address,uint256)\\\", p0, p1, p2, p3));\\n\\t}\\n\\n\\tfunction log(string memory p0, string memory p1, address p2, string memory p3) internal view {\\n\\t\\t_sendLogPayload(abi.encodeWithSignature(\\\"log(string,string,address,string)\\\", p0, p1, p2, p3));\\n\\t}\\n\\n\\tfunction log(string memory p0, string memory p1, address p2, bool p3) internal view {\\n\\t\\t_sendLogPayload(abi.encodeWithSignature(\\\"log(string,string,address,bool)\\\", p0, p1, p2, p3));\\n\\t}\\n\\n\\tfunction log(string memory p0, string memory p1, address p2, address p3) internal view {\\n\\t\\t_sendLogPayload(abi.encodeWithSignature(\\\"log(string,string,address,address)\\\", p0, p1, p2, p3));\\n\\t}\\n\\n\\tfunction log(string memory p0, bool p1, uint256 p2, uint256 p3) internal view {\\n\\t\\t_sendLogPayload(abi.encodeWithSignature(\\\"log(string,bool,uint256,uint256)\\\", p0, p1, p2, p3));\\n\\t}\\n\\n\\tfunction log(string memory p0, bool p1, uint256 p2, string memory p3) internal view {\\n\\t\\t_sendLogPayload(abi.encodeWithSignature(\\\"log(string,bool,uint256,string)\\\", p0, p1, p2, p3));\\n\\t}\\n\\n\\tfunction log(string memory p0, bool p1, uint256 p2, bool p3) internal view {\\n\\t\\t_sendLogPayload(abi.encodeWithSignature(\\\"log(string,bool,uint256,bool)\\\", p0, p1, p2, p3));\\n\\t}\\n\\n\\tfunction log(string memory p0, bool p1, uint256 p2, address p3) internal view {\\n\\t\\t_sendLogPayload(abi.encodeWithSignature(\\\"log(string,bool,uint256,address)\\\", p0, p1, p2, p3));\\n\\t}\\n\\n\\tfunction log(string memory p0, bool p1, string memory p2, uint256 p3) internal view {\\n\\t\\t_sendLogPayload(abi.encodeWithSignature(\\\"log(string,bool,string,uint256)\\\", p0, p1, p2, p3));\\n\\t}\\n\\n\\tfunction log(string memory p0, bool p1, string memory p2, string memory p3) internal view {\\n\\t\\t_sendLogPayload(abi.encodeWithSignature(\\\"log(string,bool,string,string)\\\", p0, p1, p2, p3));\\n\\t}\\n\\n\\tfunction log(string memory p0, bool p1, string memory p2, bool p3) internal view {\\n\\t\\t_sendLogPayload(abi.encodeWithSignature(\\\"log(string,bool,string,bool)\\\", p0, p1, p2, p3));\\n\\t}\\n\\n\\tfunction log(string memory p0, bool p1, string memory p2, address p3) internal view {\\n\\t\\t_sendLogPayload(abi.encodeWithSignature(\\\"log(string,bool,string,address)\\\", p0, p1, p2, p3));\\n\\t}\\n\\n\\tfunction log(string memory p0, bool p1, bool p2, uint256 p3) internal view {\\n\\t\\t_sendLogPayload(abi.encodeWithSignature(\\\"log(string,bool,bool,uint256)\\\", p0, p1, p2, p3));\\n\\t}\\n\\n\\tfunction log(string memory p0, bool p1, bool p2, string memory p3) internal view {\\n\\t\\t_sendLogPayload(abi.encodeWithSignature(\\\"log(string,bool,bool,string)\\\", p0, p1, p2, p3));\\n\\t}\\n\\n\\tfunction log(string memory p0, bool p1, bool p2, bool p3) internal view {\\n\\t\\t_sendLogPayload(abi.encodeWithSignature(\\\"log(string,bool,bool,bool)\\\", p0, p1, p2, p3));\\n\\t}\\n\\n\\tfunction log(string memory p0, bool p1, bool p2, address p3) internal view {\\n\\t\\t_sendLogPayload(abi.encodeWithSignature(\\\"log(string,bool,bool,address)\\\", p0, p1, p2, p3));\\n\\t}\\n\\n\\tfunction log(string memory p0, bool p1, address p2, uint256 p3) internal view {\\n\\t\\t_sendLogPayload(abi.encodeWithSignature(\\\"log(string,bool,address,uint256)\\\", p0, p1, p2, p3));\\n\\t}\\n\\n\\tfunction log(string memory p0, bool p1, address p2, string memory p3) internal view {\\n\\t\\t_sendLogPayload(abi.encodeWithSignature(\\\"log(string,bool,address,string)\\\", p0, p1, p2, p3));\\n\\t}\\n\\n\\tfunction log(string memory p0, bool p1, address p2, bool p3) internal view {\\n\\t\\t_sendLogPayload(abi.encodeWithSignature(\\\"log(string,bool,address,bool)\\\", p0, p1, p2, p3));\\n\\t}\\n\\n\\tfunction log(string memory p0, bool p1, address p2, address p3) internal view {\\n\\t\\t_sendLogPayload(abi.encodeWithSignature(\\\"log(string,bool,address,address)\\\", p0, p1, p2, p3));\\n\\t}\\n\\n\\tfunction log(string memory p0, address p1, uint256 p2, uint256 p3) internal view {\\n\\t\\t_sendLogPayload(abi.encodeWithSignature(\\\"log(string,address,uint256,uint256)\\\", p0, p1, p2, p3));\\n\\t}\\n\\n\\tfunction log(string memory p0, address p1, uint256 p2, string memory p3) internal view {\\n\\t\\t_sendLogPayload(abi.encodeWithSignature(\\\"log(string,address,uint256,string)\\\", p0, p1, p2, p3));\\n\\t}\\n\\n\\tfunction log(string memory p0, address p1, uint256 p2, bool p3) internal view {\\n\\t\\t_sendLogPayload(abi.encodeWithSignature(\\\"log(string,address,uint256,bool)\\\", p0, p1, p2, p3));\\n\\t}\\n\\n\\tfunction log(string memory p0, address p1, uint256 p2, address p3) internal view {\\n\\t\\t_sendLogPayload(abi.encodeWithSignature(\\\"log(string,address,uint256,address)\\\", p0, p1, p2, p3));\\n\\t}\\n\\n\\tfunction log(string memory p0, address p1, string memory p2, uint256 p3) internal view {\\n\\t\\t_sendLogPayload(abi.encodeWithSignature(\\\"log(string,address,string,uint256)\\\", p0, p1, p2, p3));\\n\\t}\\n\\n\\tfunction log(string memory p0, address p1, string memory p2, string memory p3) internal view {\\n\\t\\t_sendLogPayload(abi.encodeWithSignature(\\\"log(string,address,string,string)\\\", p0, p1, p2, p3));\\n\\t}\\n\\n\\tfunction log(string memory p0, address p1, string memory p2, bool p3) internal view {\\n\\t\\t_sendLogPayload(abi.encodeWithSignature(\\\"log(string,address,string,bool)\\\", p0, p1, p2, p3));\\n\\t}\\n\\n\\tfunction log(string memory p0, address p1, string memory p2, address p3) internal view {\\n\\t\\t_sendLogPayload(abi.encodeWithSignature(\\\"log(string,address,string,address)\\\", p0, p1, p2, p3));\\n\\t}\\n\\n\\tfunction log(string memory p0, address p1, bool p2, uint256 p3) internal view {\\n\\t\\t_sendLogPayload(abi.encodeWithSignature(\\\"log(string,address,bool,uint256)\\\", p0, p1, p2, p3));\\n\\t}\\n\\n\\tfunction log(string memory p0, address p1, bool p2, string memory p3) internal view {\\n\\t\\t_sendLogPayload(abi.encodeWithSignature(\\\"log(string,address,bool,string)\\\", p0, p1, p2, p3));\\n\\t}\\n\\n\\tfunction log(string memory p0, address p1, bool p2, bool p3) internal view {\\n\\t\\t_sendLogPayload(abi.encodeWithSignature(\\\"log(string,address,bool,bool)\\\", p0, p1, p2, p3));\\n\\t}\\n\\n\\tfunction log(string memory p0, address p1, bool p2, address p3) internal view {\\n\\t\\t_sendLogPayload(abi.encodeWithSignature(\\\"log(string,address,bool,address)\\\", p0, p1, p2, p3));\\n\\t}\\n\\n\\tfunction log(string memory p0, address p1, address p2, uint256 p3) internal view {\\n\\t\\t_sendLogPayload(abi.encodeWithSignature(\\\"log(string,address,address,uint256)\\\", p0, p1, p2, p3));\\n\\t}\\n\\n\\tfunction log(string memory p0, address p1, address p2, string memory p3) internal view {\\n\\t\\t_sendLogPayload(abi.encodeWithSignature(\\\"log(string,address,address,string)\\\", p0, p1, p2, p3));\\n\\t}\\n\\n\\tfunction log(string memory p0, address p1, address p2, bool p3) internal view {\\n\\t\\t_sendLogPayload(abi.encodeWithSignature(\\\"log(string,address,address,bool)\\\", p0, p1, p2, p3));\\n\\t}\\n\\n\\tfunction log(string memory p0, address p1, address p2, address p3) internal view {\\n\\t\\t_sendLogPayload(abi.encodeWithSignature(\\\"log(string,address,address,address)\\\", p0, p1, p2, p3));\\n\\t}\\n\\n\\tfunction log(bool p0, uint256 p1, uint256 p2, uint256 p3) internal view {\\n\\t\\t_sendLogPayload(abi.encodeWithSignature(\\\"log(bool,uint256,uint256,uint256)\\\", p0, p1, p2, p3));\\n\\t}\\n\\n\\tfunction log(bool p0, uint256 p1, uint256 p2, string memory p3) internal view {\\n\\t\\t_sendLogPayload(abi.encodeWithSignature(\\\"log(bool,uint256,uint256,string)\\\", p0, p1, p2, p3));\\n\\t}\\n\\n\\tfunction log(bool p0, uint256 p1, uint256 p2, bool p3) internal view {\\n\\t\\t_sendLogPayload(abi.encodeWithSignature(\\\"log(bool,uint256,uint256,bool)\\\", p0, p1, p2, p3));\\n\\t}\\n\\n\\tfunction log(bool p0, uint256 p1, uint256 p2, address p3) internal view {\\n\\t\\t_sendLogPayload(abi.encodeWithSignature(\\\"log(bool,uint256,uint256,address)\\\", p0, p1, p2, p3));\\n\\t}\\n\\n\\tfunction log(bool p0, uint256 p1, string memory p2, uint256 p3) internal view {\\n\\t\\t_sendLogPayload(abi.encodeWithSignature(\\\"log(bool,uint256,string,uint256)\\\", p0, p1, p2, p3));\\n\\t}\\n\\n\\tfunction log(bool p0, uint256 p1, string memory p2, string memory p3) internal view {\\n\\t\\t_sendLogPayload(abi.encodeWithSignature(\\\"log(bool,uint256,string,string)\\\", p0, p1, p2, p3));\\n\\t}\\n\\n\\tfunction log(bool p0, uint256 p1, string memory p2, bool p3) internal view {\\n\\t\\t_sendLogPayload(abi.encodeWithSignature(\\\"log(bool,uint256,string,bool)\\\", p0, p1, p2, p3));\\n\\t}\\n\\n\\tfunction log(bool p0, uint256 p1, string memory p2, address p3) internal view {\\n\\t\\t_sendLogPayload(abi.encodeWithSignature(\\\"log(bool,uint256,string,address)\\\", p0, p1, p2, p3));\\n\\t}\\n\\n\\tfunction log(bool p0, uint256 p1, bool p2, uint256 p3) internal view {\\n\\t\\t_sendLogPayload(abi.encodeWithSignature(\\\"log(bool,uint256,bool,uint256)\\\", p0, p1, p2, p3));\\n\\t}\\n\\n\\tfunction log(bool p0, uint256 p1, bool p2, string memory p3) internal view {\\n\\t\\t_sendLogPayload(abi.encodeWithSignature(\\\"log(bool,uint256,bool,string)\\\", p0, p1, p2, p3));\\n\\t}\\n\\n\\tfunction log(bool p0, uint256 p1, bool p2, bool p3) internal view {\\n\\t\\t_sendLogPayload(abi.encodeWithSignature(\\\"log(bool,uint256,bool,bool)\\\", p0, p1, p2, p3));\\n\\t}\\n\\n\\tfunction log(bool p0, uint256 p1, bool p2, address p3) internal view {\\n\\t\\t_sendLogPayload(abi.encodeWithSignature(\\\"log(bool,uint256,bool,address)\\\", p0, p1, p2, p3));\\n\\t}\\n\\n\\tfunction log(bool p0, uint256 p1, address p2, uint256 p3) internal view {\\n\\t\\t_sendLogPayload(abi.encodeWithSignature(\\\"log(bool,uint256,address,uint256)\\\", p0, p1, p2, p3));\\n\\t}\\n\\n\\tfunction log(bool p0, uint256 p1, address p2, string memory p3) internal view {\\n\\t\\t_sendLogPayload(abi.encodeWithSignature(\\\"log(bool,uint256,address,string)\\\", p0, p1, p2, p3));\\n\\t}\\n\\n\\tfunction log(bool p0, uint256 p1, address p2, bool p3) internal view {\\n\\t\\t_sendLogPayload(abi.encodeWithSignature(\\\"log(bool,uint256,address,bool)\\\", p0, p1, p2, p3));\\n\\t}\\n\\n\\tfunction log(bool p0, uint256 p1, address p2, address p3) internal view {\\n\\t\\t_sendLogPayload(abi.encodeWithSignature(\\\"log(bool,uint256,address,address)\\\", p0, p1, p2, p3));\\n\\t}\\n\\n\\tfunction log(bool p0, string memory p1, uint256 p2, uint256 p3) internal view {\\n\\t\\t_sendLogPayload(abi.encodeWithSignature(\\\"log(bool,string,uint256,uint256)\\\", p0, p1, p2, p3));\\n\\t}\\n\\n\\tfunction log(bool p0, string memory p1, uint256 p2, string memory p3) internal view {\\n\\t\\t_sendLogPayload(abi.encodeWithSignature(\\\"log(bool,string,uint256,string)\\\", p0, p1, p2, p3));\\n\\t}\\n\\n\\tfunction log(bool p0, string memory p1, uint256 p2, bool p3) internal view {\\n\\t\\t_sendLogPayload(abi.encodeWithSignature(\\\"log(bool,string,uint256,bool)\\\", p0, p1, p2, p3));\\n\\t}\\n\\n\\tfunction log(bool p0, string memory p1, uint256 p2, address p3) internal view {\\n\\t\\t_sendLogPayload(abi.encodeWithSignature(\\\"log(bool,string,uint256,address)\\\", p0, p1, p2, p3));\\n\\t}\\n\\n\\tfunction log(bool p0, string memory p1, string memory p2, uint256 p3) internal view {\\n\\t\\t_sendLogPayload(abi.encodeWithSignature(\\\"log(bool,string,string,uint256)\\\", p0, p1, p2, p3));\\n\\t}\\n\\n\\tfunction log(bool p0, string memory p1, string memory p2, string memory p3) internal view {\\n\\t\\t_sendLogPayload(abi.encodeWithSignature(\\\"log(bool,string,string,string)\\\", p0, p1, p2, p3));\\n\\t}\\n\\n\\tfunction log(bool p0, string memory p1, string memory p2, bool p3) internal view {\\n\\t\\t_sendLogPayload(abi.encodeWithSignature(\\\"log(bool,string,string,bool)\\\", p0, p1, p2, p3));\\n\\t}\\n\\n\\tfunction log(bool p0, string memory p1, string memory p2, address p3) internal view {\\n\\t\\t_sendLogPayload(abi.encodeWithSignature(\\\"log(bool,string,string,address)\\\", p0, p1, p2, p3));\\n\\t}\\n\\n\\tfunction log(bool p0, string memory p1, bool p2, uint256 p3) internal view {\\n\\t\\t_sendLogPayload(abi.encodeWithSignature(\\\"log(bool,string,bool,uint256)\\\", p0, p1, p2, p3));\\n\\t}\\n\\n\\tfunction log(bool p0, string memory p1, bool p2, string memory p3) internal view {\\n\\t\\t_sendLogPayload(abi.encodeWithSignature(\\\"log(bool,string,bool,string)\\\", p0, p1, p2, p3));\\n\\t}\\n\\n\\tfunction log(bool p0, string memory p1, bool p2, bool p3) internal view {\\n\\t\\t_sendLogPayload(abi.encodeWithSignature(\\\"log(bool,string,bool,bool)\\\", p0, p1, p2, p3));\\n\\t}\\n\\n\\tfunction log(bool p0, string memory p1, bool p2, address p3) internal view {\\n\\t\\t_sendLogPayload(abi.encodeWithSignature(\\\"log(bool,string,bool,address)\\\", p0, p1, p2, p3));\\n\\t}\\n\\n\\tfunction log(bool p0, string memory p1, address p2, uint256 p3) internal view {\\n\\t\\t_sendLogPayload(abi.encodeWithSignature(\\\"log(bool,string,address,uint256)\\\", p0, p1, p2, p3));\\n\\t}\\n\\n\\tfunction log(bool p0, string memory p1, address p2, string memory p3) internal view {\\n\\t\\t_sendLogPayload(abi.encodeWithSignature(\\\"log(bool,string,address,string)\\\", p0, p1, p2, p3));\\n\\t}\\n\\n\\tfunction log(bool p0, string memory p1, address p2, bool p3) internal view {\\n\\t\\t_sendLogPayload(abi.encodeWithSignature(\\\"log(bool,string,address,bool)\\\", p0, p1, p2, p3));\\n\\t}\\n\\n\\tfunction log(bool p0, string memory p1, address p2, address p3) internal view {\\n\\t\\t_sendLogPayload(abi.encodeWithSignature(\\\"log(bool,string,address,address)\\\", p0, p1, p2, p3));\\n\\t}\\n\\n\\tfunction log(bool p0, bool p1, uint256 p2, uint256 p3) internal view {\\n\\t\\t_sendLogPayload(abi.encodeWithSignature(\\\"log(bool,bool,uint256,uint256)\\\", p0, p1, p2, p3));\\n\\t}\\n\\n\\tfunction log(bool p0, bool p1, uint256 p2, string memory p3) internal view {\\n\\t\\t_sendLogPayload(abi.encodeWithSignature(\\\"log(bool,bool,uint256,string)\\\", p0, p1, p2, p3));\\n\\t}\\n\\n\\tfunction log(bool p0, bool p1, uint256 p2, bool p3) internal view {\\n\\t\\t_sendLogPayload(abi.encodeWithSignature(\\\"log(bool,bool,uint256,bool)\\\", p0, p1, p2, p3));\\n\\t}\\n\\n\\tfunction log(bool p0, bool p1, uint256 p2, address p3) internal view {\\n\\t\\t_sendLogPayload(abi.encodeWithSignature(\\\"log(bool,bool,uint256,address)\\\", p0, p1, p2, p3));\\n\\t}\\n\\n\\tfunction log(bool p0, bool p1, string memory p2, uint256 p3) internal view {\\n\\t\\t_sendLogPayload(abi.encodeWithSignature(\\\"log(bool,bool,string,uint256)\\\", p0, p1, p2, p3));\\n\\t}\\n\\n\\tfunction log(bool p0, bool p1, string memory p2, string memory p3) internal view {\\n\\t\\t_sendLogPayload(abi.encodeWithSignature(\\\"log(bool,bool,string,string)\\\", p0, p1, p2, p3));\\n\\t}\\n\\n\\tfunction log(bool p0, bool p1, string memory p2, bool p3) internal view {\\n\\t\\t_sendLogPayload(abi.encodeWithSignature(\\\"log(bool,bool,string,bool)\\\", p0, p1, p2, p3));\\n\\t}\\n\\n\\tfunction log(bool p0, bool p1, string memory p2, address p3) internal view {\\n\\t\\t_sendLogPayload(abi.encodeWithSignature(\\\"log(bool,bool,string,address)\\\", p0, p1, p2, p3));\\n\\t}\\n\\n\\tfunction log(bool p0, bool p1, bool p2, uint256 p3) internal view {\\n\\t\\t_sendLogPayload(abi.encodeWithSignature(\\\"log(bool,bool,bool,uint256)\\\", p0, p1, p2, p3));\\n\\t}\\n\\n\\tfunction log(bool p0, bool p1, bool p2, string memory p3) internal view {\\n\\t\\t_sendLogPayload(abi.encodeWithSignature(\\\"log(bool,bool,bool,string)\\\", p0, p1, p2, p3));\\n\\t}\\n\\n\\tfunction log(bool p0, bool p1, bool p2, bool p3) internal view {\\n\\t\\t_sendLogPayload(abi.encodeWithSignature(\\\"log(bool,bool,bool,bool)\\\", p0, p1, p2, p3));\\n\\t}\\n\\n\\tfunction log(bool p0, bool p1, bool p2, address p3) internal view {\\n\\t\\t_sendLogPayload(abi.encodeWithSignature(\\\"log(bool,bool,bool,address)\\\", p0, p1, p2, p3));\\n\\t}\\n\\n\\tfunction log(bool p0, bool p1, address p2, uint256 p3) internal view {\\n\\t\\t_sendLogPayload(abi.encodeWithSignature(\\\"log(bool,bool,address,uint256)\\\", p0, p1, p2, p3));\\n\\t}\\n\\n\\tfunction log(bool p0, bool p1, address p2, string memory p3) internal view {\\n\\t\\t_sendLogPayload(abi.encodeWithSignature(\\\"log(bool,bool,address,string)\\\", p0, p1, p2, p3));\\n\\t}\\n\\n\\tfunction log(bool p0, bool p1, address p2, bool p3) internal view {\\n\\t\\t_sendLogPayload(abi.encodeWithSignature(\\\"log(bool,bool,address,bool)\\\", p0, p1, p2, p3));\\n\\t}\\n\\n\\tfunction log(bool p0, bool p1, address p2, address p3) internal view {\\n\\t\\t_sendLogPayload(abi.encodeWithSignature(\\\"log(bool,bool,address,address)\\\", p0, p1, p2, p3));\\n\\t}\\n\\n\\tfunction log(bool p0, address p1, uint256 p2, uint256 p3) internal view {\\n\\t\\t_sendLogPayload(abi.encodeWithSignature(\\\"log(bool,address,uint256,uint256)\\\", p0, p1, p2, p3));\\n\\t}\\n\\n\\tfunction log(bool p0, address p1, uint256 p2, string memory p3) internal view {\\n\\t\\t_sendLogPayload(abi.encodeWithSignature(\\\"log(bool,address,uint256,string)\\\", p0, p1, p2, p3));\\n\\t}\\n\\n\\tfunction log(bool p0, address p1, uint256 p2, bool p3) internal view {\\n\\t\\t_sendLogPayload(abi.encodeWithSignature(\\\"log(bool,address,uint256,bool)\\\", p0, p1, p2, p3));\\n\\t}\\n\\n\\tfunction log(bool p0, address p1, uint256 p2, address p3) internal view {\\n\\t\\t_sendLogPayload(abi.encodeWithSignature(\\\"log(bool,address,uint256,address)\\\", p0, p1, p2, p3));\\n\\t}\\n\\n\\tfunction log(bool p0, address p1, string memory p2, uint256 p3) internal view {\\n\\t\\t_sendLogPayload(abi.encodeWithSignature(\\\"log(bool,address,string,uint256)\\\", p0, p1, p2, p3));\\n\\t}\\n\\n\\tfunction log(bool p0, address p1, string memory p2, string memory p3) internal view {\\n\\t\\t_sendLogPayload(abi.encodeWithSignature(\\\"log(bool,address,string,string)\\\", p0, p1, p2, p3));\\n\\t}\\n\\n\\tfunction log(bool p0, address p1, string memory p2, bool p3) internal view {\\n\\t\\t_sendLogPayload(abi.encodeWithSignature(\\\"log(bool,address,string,bool)\\\", p0, p1, p2, p3));\\n\\t}\\n\\n\\tfunction log(bool p0, address p1, string memory p2, address p3) internal view {\\n\\t\\t_sendLogPayload(abi.encodeWithSignature(\\\"log(bool,address,string,address)\\\", p0, p1, p2, p3));\\n\\t}\\n\\n\\tfunction log(bool p0, address p1, bool p2, uint256 p3) internal view {\\n\\t\\t_sendLogPayload(abi.encodeWithSignature(\\\"log(bool,address,bool,uint256)\\\", p0, p1, p2, p3));\\n\\t}\\n\\n\\tfunction log(bool p0, address p1, bool p2, string memory p3) internal view {\\n\\t\\t_sendLogPayload(abi.encodeWithSignature(\\\"log(bool,address,bool,string)\\\", p0, p1, p2, p3));\\n\\t}\\n\\n\\tfunction log(bool p0, address p1, bool p2, bool p3) internal view {\\n\\t\\t_sendLogPayload(abi.encodeWithSignature(\\\"log(bool,address,bool,bool)\\\", p0, p1, p2, p3));\\n\\t}\\n\\n\\tfunction log(bool p0, address p1, bool p2, address p3) internal view {\\n\\t\\t_sendLogPayload(abi.encodeWithSignature(\\\"log(bool,address,bool,address)\\\", p0, p1, p2, p3));\\n\\t}\\n\\n\\tfunction log(bool p0, address p1, address p2, uint256 p3) internal view {\\n\\t\\t_sendLogPayload(abi.encodeWithSignature(\\\"log(bool,address,address,uint256)\\\", p0, p1, p2, p3));\\n\\t}\\n\\n\\tfunction log(bool p0, address p1, address p2, string memory p3) internal view {\\n\\t\\t_sendLogPayload(abi.encodeWithSignature(\\\"log(bool,address,address,string)\\\", p0, p1, p2, p3));\\n\\t}\\n\\n\\tfunction log(bool p0, address p1, address p2, bool p3) internal view {\\n\\t\\t_sendLogPayload(abi.encodeWithSignature(\\\"log(bool,address,address,bool)\\\", p0, p1, p2, p3));\\n\\t}\\n\\n\\tfunction log(bool p0, address p1, address p2, address p3) internal view {\\n\\t\\t_sendLogPayload(abi.encodeWithSignature(\\\"log(bool,address,address,address)\\\", p0, p1, p2, p3));\\n\\t}\\n\\n\\tfunction log(address p0, uint256 p1, uint256 p2, uint256 p3) internal view {\\n\\t\\t_sendLogPayload(abi.encodeWithSignature(\\\"log(address,uint256,uint256,uint256)\\\", p0, p1, p2, p3));\\n\\t}\\n\\n\\tfunction log(address p0, uint256 p1, uint256 p2, string memory p3) internal view {\\n\\t\\t_sendLogPayload(abi.encodeWithSignature(\\\"log(address,uint256,uint256,string)\\\", p0, p1, p2, p3));\\n\\t}\\n\\n\\tfunction log(address p0, uint256 p1, uint256 p2, bool p3) internal view {\\n\\t\\t_sendLogPayload(abi.encodeWithSignature(\\\"log(address,uint256,uint256,bool)\\\", p0, p1, p2, p3));\\n\\t}\\n\\n\\tfunction log(address p0, uint256 p1, uint256 p2, address p3) internal view {\\n\\t\\t_sendLogPayload(abi.encodeWithSignature(\\\"log(address,uint256,uint256,address)\\\", p0, p1, p2, p3));\\n\\t}\\n\\n\\tfunction log(address p0, uint256 p1, string memory p2, uint256 p3) internal view {\\n\\t\\t_sendLogPayload(abi.encodeWithSignature(\\\"log(address,uint256,string,uint256)\\\", p0, p1, p2, p3));\\n\\t}\\n\\n\\tfunction log(address p0, uint256 p1, string memory p2, string memory p3) internal view {\\n\\t\\t_sendLogPayload(abi.encodeWithSignature(\\\"log(address,uint256,string,string)\\\", p0, p1, p2, p3));\\n\\t}\\n\\n\\tfunction log(address p0, uint256 p1, string memory p2, bool p3) internal view {\\n\\t\\t_sendLogPayload(abi.encodeWithSignature(\\\"log(address,uint256,string,bool)\\\", p0, p1, p2, p3));\\n\\t}\\n\\n\\tfunction log(address p0, uint256 p1, string memory p2, address p3) internal view {\\n\\t\\t_sendLogPayload(abi.encodeWithSignature(\\\"log(address,uint256,string,address)\\\", p0, p1, p2, p3));\\n\\t}\\n\\n\\tfunction log(address p0, uint256 p1, bool p2, uint256 p3) internal view {\\n\\t\\t_sendLogPayload(abi.encodeWithSignature(\\\"log(address,uint256,bool,uint256)\\\", p0, p1, p2, p3));\\n\\t}\\n\\n\\tfunction log(address p0, uint256 p1, bool p2, string memory p3) internal view {\\n\\t\\t_sendLogPayload(abi.encodeWithSignature(\\\"log(address,uint256,bool,string)\\\", p0, p1, p2, p3));\\n\\t}\\n\\n\\tfunction log(address p0, uint256 p1, bool p2, bool p3) internal view {\\n\\t\\t_sendLogPayload(abi.encodeWithSignature(\\\"log(address,uint256,bool,bool)\\\", p0, p1, p2, p3));\\n\\t}\\n\\n\\tfunction log(address p0, uint256 p1, bool p2, address p3) internal view {\\n\\t\\t_sendLogPayload(abi.encodeWithSignature(\\\"log(address,uint256,bool,address)\\\", p0, p1, p2, p3));\\n\\t}\\n\\n\\tfunction log(address p0, uint256 p1, address p2, uint256 p3) internal view {\\n\\t\\t_sendLogPayload(abi.encodeWithSignature(\\\"log(address,uint256,address,uint256)\\\", p0, p1, p2, p3));\\n\\t}\\n\\n\\tfunction log(address p0, uint256 p1, address p2, string memory p3) internal view {\\n\\t\\t_sendLogPayload(abi.encodeWithSignature(\\\"log(address,uint256,address,string)\\\", p0, p1, p2, p3));\\n\\t}\\n\\n\\tfunction log(address p0, uint256 p1, address p2, bool p3) internal view {\\n\\t\\t_sendLogPayload(abi.encodeWithSignature(\\\"log(address,uint256,address,bool)\\\", p0, p1, p2, p3));\\n\\t}\\n\\n\\tfunction log(address p0, uint256 p1, address p2, address p3) internal view {\\n\\t\\t_sendLogPayload(abi.encodeWithSignature(\\\"log(address,uint256,address,address)\\\", p0, p1, p2, p3));\\n\\t}\\n\\n\\tfunction log(address p0, string memory p1, uint256 p2, uint256 p3) internal view {\\n\\t\\t_sendLogPayload(abi.encodeWithSignature(\\\"log(address,string,uint256,uint256)\\\", p0, p1, p2, p3));\\n\\t}\\n\\n\\tfunction log(address p0, string memory p1, uint256 p2, string memory p3) internal view {\\n\\t\\t_sendLogPayload(abi.encodeWithSignature(\\\"log(address,string,uint256,string)\\\", p0, p1, p2, p3));\\n\\t}\\n\\n\\tfunction log(address p0, string memory p1, uint256 p2, bool p3) internal view {\\n\\t\\t_sendLogPayload(abi.encodeWithSignature(\\\"log(address,string,uint256,bool)\\\", p0, p1, p2, p3));\\n\\t}\\n\\n\\tfunction log(address p0, string memory p1, uint256 p2, address p3) internal view {\\n\\t\\t_sendLogPayload(abi.encodeWithSignature(\\\"log(address,string,uint256,address)\\\", p0, p1, p2, p3));\\n\\t}\\n\\n\\tfunction log(address p0, string memory p1, string memory p2, uint256 p3) internal view {\\n\\t\\t_sendLogPayload(abi.encodeWithSignature(\\\"log(address,string,string,uint256)\\\", p0, p1, p2, p3));\\n\\t}\\n\\n\\tfunction log(address p0, string memory p1, string memory p2, string memory p3) internal view {\\n\\t\\t_sendLogPayload(abi.encodeWithSignature(\\\"log(address,string,string,string)\\\", p0, p1, p2, p3));\\n\\t}\\n\\n\\tfunction log(address p0, string memory p1, string memory p2, bool p3) internal view {\\n\\t\\t_sendLogPayload(abi.encodeWithSignature(\\\"log(address,string,string,bool)\\\", p0, p1, p2, p3));\\n\\t}\\n\\n\\tfunction log(address p0, string memory p1, string memory p2, address p3) internal view {\\n\\t\\t_sendLogPayload(abi.encodeWithSignature(\\\"log(address,string,string,address)\\\", p0, p1, p2, p3));\\n\\t}\\n\\n\\tfunction log(address p0, string memory p1, bool p2, uint256 p3) internal view {\\n\\t\\t_sendLogPayload(abi.encodeWithSignature(\\\"log(address,string,bool,uint256)\\\", p0, p1, p2, p3));\\n\\t}\\n\\n\\tfunction log(address p0, string memory p1, bool p2, string memory p3) internal view {\\n\\t\\t_sendLogPayload(abi.encodeWithSignature(\\\"log(address,string,bool,string)\\\", p0, p1, p2, p3));\\n\\t}\\n\\n\\tfunction log(address p0, string memory p1, bool p2, bool p3) internal view {\\n\\t\\t_sendLogPayload(abi.encodeWithSignature(\\\"log(address,string,bool,bool)\\\", p0, p1, p2, p3));\\n\\t}\\n\\n\\tfunction log(address p0, string memory p1, bool p2, address p3) internal view {\\n\\t\\t_sendLogPayload(abi.encodeWithSignature(\\\"log(address,string,bool,address)\\\", p0, p1, p2, p3));\\n\\t}\\n\\n\\tfunction log(address p0, string memory p1, address p2, uint256 p3) internal view {\\n\\t\\t_sendLogPayload(abi.encodeWithSignature(\\\"log(address,string,address,uint256)\\\", p0, p1, p2, p3));\\n\\t}\\n\\n\\tfunction log(address p0, string memory p1, address p2, string memory p3) internal view {\\n\\t\\t_sendLogPayload(abi.encodeWithSignature(\\\"log(address,string,address,string)\\\", p0, p1, p2, p3));\\n\\t}\\n\\n\\tfunction log(address p0, string memory p1, address p2, bool p3) internal view {\\n\\t\\t_sendLogPayload(abi.encodeWithSignature(\\\"log(address,string,address,bool)\\\", p0, p1, p2, p3));\\n\\t}\\n\\n\\tfunction log(address p0, string memory p1, address p2, address p3) internal view {\\n\\t\\t_sendLogPayload(abi.encodeWithSignature(\\\"log(address,string,address,address)\\\", p0, p1, p2, p3));\\n\\t}\\n\\n\\tfunction log(address p0, bool p1, uint256 p2, uint256 p3) internal view {\\n\\t\\t_sendLogPayload(abi.encodeWithSignature(\\\"log(address,bool,uint256,uint256)\\\", p0, p1, p2, p3));\\n\\t}\\n\\n\\tfunction log(address p0, bool p1, uint256 p2, string memory p3) internal view {\\n\\t\\t_sendLogPayload(abi.encodeWithSignature(\\\"log(address,bool,uint256,string)\\\", p0, p1, p2, p3));\\n\\t}\\n\\n\\tfunction log(address p0, bool p1, uint256 p2, bool p3) internal view {\\n\\t\\t_sendLogPayload(abi.encodeWithSignature(\\\"log(address,bool,uint256,bool)\\\", p0, p1, p2, p3));\\n\\t}\\n\\n\\tfunction log(address p0, bool p1, uint256 p2, address p3) internal view {\\n\\t\\t_sendLogPayload(abi.encodeWithSignature(\\\"log(address,bool,uint256,address)\\\", p0, p1, p2, p3));\\n\\t}\\n\\n\\tfunction log(address p0, bool p1, string memory p2, uint256 p3) internal view {\\n\\t\\t_sendLogPayload(abi.encodeWithSignature(\\\"log(address,bool,string,uint256)\\\", p0, p1, p2, p3));\\n\\t}\\n\\n\\tfunction log(address p0, bool p1, string memory p2, string memory p3) internal view {\\n\\t\\t_sendLogPayload(abi.encodeWithSignature(\\\"log(address,bool,string,string)\\\", p0, p1, p2, p3));\\n\\t}\\n\\n\\tfunction log(address p0, bool p1, string memory p2, bool p3) internal view {\\n\\t\\t_sendLogPayload(abi.encodeWithSignature(\\\"log(address,bool,string,bool)\\\", p0, p1, p2, p3));\\n\\t}\\n\\n\\tfunction log(address p0, bool p1, string memory p2, address p3) internal view {\\n\\t\\t_sendLogPayload(abi.encodeWithSignature(\\\"log(address,bool,string,address)\\\", p0, p1, p2, p3));\\n\\t}\\n\\n\\tfunction log(address p0, bool p1, bool p2, uint256 p3) internal view {\\n\\t\\t_sendLogPayload(abi.encodeWithSignature(\\\"log(address,bool,bool,uint256)\\\", p0, p1, p2, p3));\\n\\t}\\n\\n\\tfunction log(address p0, bool p1, bool p2, string memory p3) internal view {\\n\\t\\t_sendLogPayload(abi.encodeWithSignature(\\\"log(address,bool,bool,string)\\\", p0, p1, p2, p3));\\n\\t}\\n\\n\\tfunction log(address p0, bool p1, bool p2, bool p3) internal view {\\n\\t\\t_sendLogPayload(abi.encodeWithSignature(\\\"log(address,bool,bool,bool)\\\", p0, p1, p2, p3));\\n\\t}\\n\\n\\tfunction log(address p0, bool p1, bool p2, address p3) internal view {\\n\\t\\t_sendLogPayload(abi.encodeWithSignature(\\\"log(address,bool,bool,address)\\\", p0, p1, p2, p3));\\n\\t}\\n\\n\\tfunction log(address p0, bool p1, address p2, uint256 p3) internal view {\\n\\t\\t_sendLogPayload(abi.encodeWithSignature(\\\"log(address,bool,address,uint256)\\\", p0, p1, p2, p3));\\n\\t}\\n\\n\\tfunction log(address p0, bool p1, address p2, string memory p3) internal view {\\n\\t\\t_sendLogPayload(abi.encodeWithSignature(\\\"log(address,bool,address,string)\\\", p0, p1, p2, p3));\\n\\t}\\n\\n\\tfunction log(address p0, bool p1, address p2, bool p3) internal view {\\n\\t\\t_sendLogPayload(abi.encodeWithSignature(\\\"log(address,bool,address,bool)\\\", p0, p1, p2, p3));\\n\\t}\\n\\n\\tfunction log(address p0, bool p1, address p2, address p3) internal view {\\n\\t\\t_sendLogPayload(abi.encodeWithSignature(\\\"log(address,bool,address,address)\\\", p0, p1, p2, p3));\\n\\t}\\n\\n\\tfunction log(address p0, address p1, uint256 p2, uint256 p3) internal view {\\n\\t\\t_sendLogPayload(abi.encodeWithSignature(\\\"log(address,address,uint256,uint256)\\\", p0, p1, p2, p3));\\n\\t}\\n\\n\\tfunction log(address p0, address p1, uint256 p2, string memory p3) internal view {\\n\\t\\t_sendLogPayload(abi.encodeWithSignature(\\\"log(address,address,uint256,string)\\\", p0, p1, p2, p3));\\n\\t}\\n\\n\\tfunction log(address p0, address p1, uint256 p2, bool p3) internal view {\\n\\t\\t_sendLogPayload(abi.encodeWithSignature(\\\"log(address,address,uint256,bool)\\\", p0, p1, p2, p3));\\n\\t}\\n\\n\\tfunction log(address p0, address p1, uint256 p2, address p3) internal view {\\n\\t\\t_sendLogPayload(abi.encodeWithSignature(\\\"log(address,address,uint256,address)\\\", p0, p1, p2, p3));\\n\\t}\\n\\n\\tfunction log(address p0, address p1, string memory p2, uint256 p3) internal view {\\n\\t\\t_sendLogPayload(abi.encodeWithSignature(\\\"log(address,address,string,uint256)\\\", p0, p1, p2, p3));\\n\\t}\\n\\n\\tfunction log(address p0, address p1, string memory p2, string memory p3) internal view {\\n\\t\\t_sendLogPayload(abi.encodeWithSignature(\\\"log(address,address,string,string)\\\", p0, p1, p2, p3));\\n\\t}\\n\\n\\tfunction log(address p0, address p1, string memory p2, bool p3) internal view {\\n\\t\\t_sendLogPayload(abi.encodeWithSignature(\\\"log(address,address,string,bool)\\\", p0, p1, p2, p3));\\n\\t}\\n\\n\\tfunction log(address p0, address p1, string memory p2, address p3) internal view {\\n\\t\\t_sendLogPayload(abi.encodeWithSignature(\\\"log(address,address,string,address)\\\", p0, p1, p2, p3));\\n\\t}\\n\\n\\tfunction log(address p0, address p1, bool p2, uint256 p3) internal view {\\n\\t\\t_sendLogPayload(abi.encodeWithSignature(\\\"log(address,address,bool,uint256)\\\", p0, p1, p2, p3));\\n\\t}\\n\\n\\tfunction log(address p0, address p1, bool p2, string memory p3) internal view {\\n\\t\\t_sendLogPayload(abi.encodeWithSignature(\\\"log(address,address,bool,string)\\\", p0, p1, p2, p3));\\n\\t}\\n\\n\\tfunction log(address p0, address p1, bool p2, bool p3) internal view {\\n\\t\\t_sendLogPayload(abi.encodeWithSignature(\\\"log(address,address,bool,bool)\\\", p0, p1, p2, p3));\\n\\t}\\n\\n\\tfunction log(address p0, address p1, bool p2, address p3) internal view {\\n\\t\\t_sendLogPayload(abi.encodeWithSignature(\\\"log(address,address,bool,address)\\\", p0, p1, p2, p3));\\n\\t}\\n\\n\\tfunction log(address p0, address p1, address p2, uint256 p3) internal view {\\n\\t\\t_sendLogPayload(abi.encodeWithSignature(\\\"log(address,address,address,uint256)\\\", p0, p1, p2, p3));\\n\\t}\\n\\n\\tfunction log(address p0, address p1, address p2, string memory p3) internal view {\\n\\t\\t_sendLogPayload(abi.encodeWithSignature(\\\"log(address,address,address,string)\\\", p0, p1, p2, p3));\\n\\t}\\n\\n\\tfunction log(address p0, address p1, address p2, bool p3) internal view {\\n\\t\\t_sendLogPayload(abi.encodeWithSignature(\\\"log(address,address,address,bool)\\\", p0, p1, p2, p3));\\n\\t}\\n\\n\\tfunction log(address p0, address p1, address p2, address p3) internal view {\\n\\t\\t_sendLogPayload(abi.encodeWithSignature(\\\"log(address,address,address,address)\\\", p0, p1, p2, p3));\\n\\t}\\n\\n}\\n\"}},\"settings\":{\"optimizer\":{\"enabled\":true,\"runs\":19980},\"outputSelection\":{\"*\":{\"\":[\"ast\"],\"*\":[\"abi\",\"metadata\",\"devdoc\",\"userdoc\",\"storageLayout\",\"evm.legacyAssembly\",\"evm.bytecode\",\"evm.deployedBytecode\",\"evm.methodIdentifiers\",\"evm.gasEstimates\",\"evm.assembly\"]}}}}",
	"name": "Owner",
	"bytecode": {
		"linkReferences": {},
		"object": "608060405234801561001057600080fd5b5061005a6040518060400160405280601b81526020017f4f776e657220636f6e7472616374206465706c6f7965642062793a00000000008152503361009e60201b6101571760201c565b600080546001600160a01b0319163390811782556040519091907f342827c97908e5e2f71151c08502a66d44b6f758e3ac2f1de95f02eb95f0a735908290a361016c565b6100e782826040516024016100b492919061010c565b60408051601f198184030181529190526020810180516001600160e01b0390811663319af33360e01b179091526100eb16565b5050565b80516a636f6e736f6c652e6c6f67602083016000808483855afa5050505050565b604081526000835180604084015260005b8181101561013a576020818701810151606086840101520161011d565b50600060608285018101919091526001600160a01b03949094166020840152601f01601f191690910190910192915050565b6103098061017b6000396000f3fe608060405234801561001057600080fd5b506004361061002b5760003560e01c8063a6f9dae114610030575b600080fd5b61004361003e36600461020d565b610045565b005b60005473ffffffffffffffffffffffffffffffffffffffff1633146100ca576040517f08c379a000000000000000000000000000000000000000000000000000000000815260206004820152601360248201527f43616c6c6572206973206e6f74206f776e657200000000000000000000000000604482015260640160405180910390fd5b6000805460405173ffffffffffffffffffffffffffffffffffffffff808516939216917f342827c97908e5e2f71151c08502a66d44b6f758e3ac2f1de95f02eb95f0a73591a3600080547fffffffffffffffffffffffff00000000000000000000000000000000000000001673ffffffffffffffffffffffffffffffffffffffff92909216919091179055565b6101e8828260405160240161016d92919061024a565b604080517fffffffffffffffffffffffffffffffffffffffffffffffffffffffffffffffe08184030181529190526020810180517bffffffffffffffffffffffffffffffffffffffffffffffffffffffff167f319af333000000000000000000000000000000000000000000000000000000001790526101ec565b5050565b80516a636f6e736f6c652e6c6f67602083016000808483855afa5050505050565b60006020828403121561021f57600080fd5b813573ffffffffffffffffffffffffffffffffffffffff8116811461024357600080fd5b9392505050565b604081526000835180604084015260005b81811015610278576020818701810151606086840101520161025b565b5060006060828501015260607fffffffffffffffffffffffffffffffffffffffffffffffffffffffffffffffe0601f83011684010191505073ffffffffffffffffffffffffffffffffffffffff83166020830152939250505056fea2646970667358221220d8a119f1f1120c9bcd7e559111d0e7efdc25e33d0e2ca30fbb0019bdeef092ad64736f6c63430008120033",
		"opcodes": "PUSH1 0x80 PUSH1 0x40 MSTORE CALLVALUE DUP1 ISZERO PUSH2 0x10 JUMPI PUSH1 0x0 DUP1 REVERT JUMPDEST POP PUSH2 0x5A PUSH1 0x40 MLOAD DUP1 PUSH1 0x40 ADD PUSH1 0x40 MSTORE DUP1 PUSH1 0x1B DUP2 MSTORE PUSH1 0x20 ADD PUSH32 0x4F776E657220636F6E7472616374206465706C6F7965642062793A0000000000 DUP2 MSTORE POP CALLER PUSH2 0x9E PUSH1 0x20 SHL PUSH2 0x157 OR PUSH1 0x20 SHR JUMP JUMPDEST PUSH1 0x0 DUP1 SLOAD PUSH1 0x1 PUSH1 0x1 PUSH1 0xA0 SHL SUB NOT AND CALLER SWAP1 DUP2 OR DUP3 SSTORE PUSH1 0x40 MLOAD SWAP1 SWAP2 SWAP1 PUSH32 0x342827C97908E5E2F71151C08502A66D44B6F758E3AC2F1DE95F02EB95F0A735 SWAP1 DUP3 SWAP1 LOG3 PUSH2 0x16C JUMP JUMPDEST PUSH2 0xE7 DUP3 DUP3 PUSH1 0x40 MLOAD PUSH1 0x24 ADD PUSH2 0xB4 SWAP3 SWAP2 SWAP1 PUSH2 0x10C JUMP JUMPDEST PUSH1 0x40 DUP1 MLOAD PUSH1 0x1F NOT DUP2 DUP5 SUB ADD DUP2 MSTORE SWAP2 SWAP1 MSTORE PUSH1 0x20 DUP2 ADD DUP1 MLOAD PUSH1 0x1 PUSH1 0x1 PUSH1 0xE0 SHL SUB SWAP1 DUP2 AND PUSH4 0x319AF333 PUSH1 0xE0 SHL OR SWAP1 SWAP2 MSTORE PUSH2 0xEB AND JUMP JUMPDEST POP POP JUMP JUMPDEST DUP1 MLOAD PUSH11 0x636F6E736F6C652E6C6F67 PUSH1 0x20 DUP4 ADD PUSH1 0x0 DUP1 DUP5 DUP4 DUP6 GAS STATICCALL POP POP POP POP POP JUMP JUMPDEST PUSH1 0x40 DUP2 MSTORE PUSH1 0x0 DUP4 MLOAD DUP1 PUSH1 0x40 DUP5 ADD MSTORE PUSH1 0x0 JUMPDEST DUP2 DUP2 LT ISZERO PUSH2 0x13A JUMPI PUSH1 0x20 DUP2 DUP8 ADD DUP2 ADD MLOAD PUSH1 0x60 DUP7 DUP5 ADD ADD MSTORE ADD PUSH2 0x11D JUMP JUMPDEST POP PUSH1 0x0 PUSH1 0x60 DUP3 DUP6 ADD DUP2 ADD SWAP2 SWAP1 SWAP2 MSTORE PUSH1 0x1 PUSH1 0x1 PUSH1 0xA0 SHL SUB SWAP5 SWAP1 SWAP5 AND PUSH1 0x20 DUP5 ADD MSTORE PUSH1 0x1F ADD PUSH1 0x1F NOT AND SWAP1 SWAP2 ADD SWAP1 SWAP2 ADD SWAP3 SWAP2 POP POP JUMP JUMPDEST PUSH2 0x309 DUP1 PUSH2 0x17B PUSH1 0x0 CODECOPY PUSH1 0x0 RETURN INVALID PUSH1 0x80 PUSH1 0x40 MSTORE CALLVALUE DUP1 ISZERO PUSH2 0x10 JUMPI PUSH1 0x0 DUP1 REVERT JUMPDEST POP PUSH1 0x4 CALLDATASIZE LT PUSH2 0x2B JUMPI PUSH1 0x0 CALLDATALOAD PUSH1 0xE0 SHR DUP1 PUSH4 0xA6F9DAE1 EQ PUSH2 0x30 JUMPI JUMPDEST PUSH1 0x0 DUP1 REVERT JUMPDEST PUSH2 0x43 PUSH2 0x3E CALLDATASIZE PUSH1 0x4 PUSH2 0x20D JUMP JUMPDEST PUSH2 0x45 JUMP JUMPDEST STOP JUMPDEST PUSH1 0x0 SLOAD PUSH20 0xFFFFFFFFFFFFFFFFFFFFFFFFFFFFFFFFFFFFFFFF AND CALLER EQ PUSH2 0xCA JUMPI PUSH1 0x40 MLOAD PUSH32 0x8C379A000000000000000000000000000000000000000000000000000000000 DUP2 MSTORE PUSH1 0x20 PUSH1 0x4 DUP3 ADD MSTORE PUSH1 0x13 PUSH1 0x24 DUP3 ADD MSTORE PUSH32 0x43616C6C6572206973206E6F74206F776E657200000000000000000000000000 PUSH1 0x44 DUP3 ADD MSTORE PUSH1 0x64 ADD PUSH1 0x40 MLOAD DUP1 SWAP2 SUB SWAP1 REVERT JUMPDEST PUSH1 0x0 DUP1 SLOAD PUSH1 0x40 MLOAD PUSH20 0xFFFFFFFFFFFFFFFFFFFFFFFFFFFFFFFFFFFFFFFF DUP1 DUP6 AND SWAP4 SWAP3 AND SWAP2 PUSH32 0x342827C97908E5E2F71151C08502A66D44B6F758E3AC2F1DE95F02EB95F0A735 SWAP2 LOG3 PUSH1 0x0 DUP1 SLOAD PUSH32 0xFFFFFFFFFFFFFFFFFFFFFFFF0000000000000000000000000000000000000000 AND PUSH20 0xFFFFFFFFFFFFFFFFFFFFFFFFFFFFFFFFFFFFFFFF SWAP3 SWAP1 SWAP3 AND SWAP2 SWAP1 SWAP2 OR SWAP1 SSTORE JUMP JUMPDEST PUSH2 0x1E8 DUP3 DUP3 PUSH1 0x40 MLOAD PUSH1 0x24 ADD PUSH2 0x16D SWAP3 SWAP2 SWAP1 PUSH2 0x24A JUMP JUMPDEST PUSH1 0x40 DUP1 MLOAD PUSH32 0xFFFFFFFFFFFFFFFFFFFFFFFFFFFFFFFFFFFFFFFFFFFFFFFFFFFFFFFFFFFFFFE0 DUP2 DUP5 SUB ADD DUP2 MSTORE SWAP2 SWAP1 MSTORE PUSH1 0x20 DUP2 ADD DUP1 MLOAD PUSH28 0xFFFFFFFFFFFFFFFFFFFFFFFFFFFFFFFFFFFFFFFFFFFFFFFFFFFFFFFF AND PUSH32 0x319AF33300000000000000000000000000000000000000000000000000000000 OR SWAP1 MSTORE PUSH2 0x1EC JUMP JUMPDEST POP POP JUMP JUMPDEST DUP1 MLOAD PUSH11 0x636F6E736F6C652E6C6F67 PUSH1 0x20 DUP4 ADD PUSH1 0x0 DUP1 DUP5 DUP4 DUP6 GAS STATICCALL POP POP POP POP POP JUMP JUMPDEST PUSH1 0x0 PUSH1 0x20 DUP3 DUP5 SUB SLT ISZERO PUSH2 0x21F JUMPI PUSH1 0x0 DUP1 REVERT JUMPDEST DUP2 CALLDATALOAD PUSH20 0xFFFFFFFFFFFFFFFFFFFFFFFFFFFFFFFFFFFFFFFF DUP2 AND DUP2 EQ PUSH2 0x243 JUMPI PUSH1 0x0 DUP1 REVERT JUMPDEST SWAP4 SWAP3 POP POP POP JUMP JUMPDEST PUSH1 0x40 DUP2 MSTORE PUSH1 0x0 DUP4 MLOAD DUP1 PUSH1 0x40 DUP5 ADD MSTORE PUSH1 0x0 JUMPDEST DUP2 DUP2 LT ISZERO PUSH2 0x278 JUMPI PUSH1 0x20 DUP2 DUP8 ADD DUP2 ADD MLOAD PUSH1 0x60 DUP7 DUP5 ADD ADD MSTORE ADD PUSH2 0x25B JUMP JUMPDEST POP PUSH1 0x0 PUSH1 0x60 DUP3 DUP6 ADD ADD MSTORE PUSH1 0x60 PUSH32 0xFFFFFFFFFFFFFFFFFFFFFFFFFFFFFFFFFFFFFFFFFFFFFFFFFFFFFFFFFFFFFFE0 PUSH1 0x1F DUP4 ADD AND DUP5 ADD ADD SWAP2 POP POP PUSH20 0xFFFFFFFFFFFFFFFFFFFFFFFFFFFFFFFFFFFFFFFF DUP4 AND PUSH1 0x20 DUP4 ADD MSTORE SWAP4 SWAP3 POP POP POP JUMP INVALID LOG2 PUSH5 0x6970667358 0x22 SLT KECCAK256 0xD8 LOG1 NOT CALL CALL SLT 0xC SWAP12 0xCD PUSH31 0x559111D0E7EFDC25E33D0E2CA30FBB0019BDEEF092AD64736F6C6343000812 STOP CALLER "
	},
	"abi": [
		{
			"inputs": [],
			"stateMutability": "nonpayable",
			"type": "constructor"
		},
		{
			"anonymous": false,
			"inputs": [
				{
					"indexed": true,
					"internalType": "address",
					"name": "oldOwner",
					"type": "address"
				},
				{
					"indexed": true,
					"internalType": "address",
					"name": "newOwner",
					"type": "address"
				}
			],
			"name": "OwnerSet",
			"type": "event"
		},
		{
			"inputs": [
				{
					"internalType": "address",
					"name": "newOwner",
					"type": "address"
				}
			],
			"name": "changeOwner",
			"outputs": [],
			"stateMutability": "nonpayable",
			"type": "function"
		}
	],
	"storageLayout": {
		"storage": [
			{
				"astId": 5,
				"contract": "contracts/2_Owner.sol:Owner",
				"label": "owner",
				"offset": 0,
				"slot": "0",
				"type": "t_address"
			}
		],
		"types": {
			"t_address": {
				"encoding": "inplace",
				"label": "address",
				"numberOfBytes": "20"
			}
		}
	},
	"web3Deploy": "var ownerContract = new web3.eth.Contract([{\"inputs\":[],\"stateMutability\":\"nonpayable\",\"type\":\"constructor\"},{\"anonymous\":false,\"inputs\":[{\"indexed\":true,\"internalType\":\"address\",\"name\":\"oldOwner\",\"type\":\"address\"},{\"indexed\":true,\"internalType\":\"address\",\"name\":\"newOwner\",\"type\":\"address\"}],\"name\":\"OwnerSet\",\"type\":\"event\"},{\"inputs\":[{\"internalType\":\"address\",\"name\":\"newOwner\",\"type\":\"address\"}],\"name\":\"changeOwner\",\"outputs\":[],\"stateMutability\":\"nonpayable\",\"type\":\"function\"}]);\nvar owner = ownerContract.deploy({\n     data: '0x608060405234801561001057600080fd5b5061005a6040518060400160405280601b81526020017f4f776e657220636f6e7472616374206465706c6f7965642062793a00000000008152503361009e60201b6101571760201c565b600080546001600160a01b0319163390811782556040519091907f342827c97908e5e2f71151c08502a66d44b6f758e3ac2f1de95f02eb95f0a735908290a361016c565b6100e782826040516024016100b492919061010c565b60408051601f198184030181529190526020810180516001600160e01b0390811663319af33360e01b179091526100eb16565b5050565b80516a636f6e736f6c652e6c6f67602083016000808483855afa5050505050565b604081526000835180604084015260005b8181101561013a576020818701810151606086840101520161011d565b50600060608285018101919091526001600160a01b03949094166020840152601f01601f191690910190910192915050565b6103098061017b6000396000f3fe608060405234801561001057600080fd5b506004361061002b5760003560e01c8063a6f9dae114610030575b600080fd5b61004361003e36600461020d565b610045565b005b60005473ffffffffffffffffffffffffffffffffffffffff1633146100ca576040517f08c379a000000000000000000000000000000000000000000000000000000000815260206004820152601360248201527f43616c6c6572206973206e6f74206f776e657200000000000000000000000000604482015260640160405180910390fd5b6000805460405173ffffffffffffffffffffffffffffffffffffffff808516939216917f342827c97908e5e2f71151c08502a66d44b6f758e3ac2f1de95f02eb95f0a73591a3600080547fffffffffffffffffffffffff00000000000000000000000000000000000000001673ffffffffffffffffffffffffffffffffffffffff92909216919091179055565b6101e8828260405160240161016d92919061024a565b604080517fffffffffffffffffffffffffffffffffffffffffffffffffffffffffffffffe08184030181529190526020810180517bffffffffffffffffffffffffffffffffffffffffffffffffffffffff167f319af333000000000000000000000000000000000000000000000000000000001790526101ec565b5050565b80516a636f6e736f6c652e6c6f67602083016000808483855afa5050505050565b60006020828403121561021f57600080fd5b813573ffffffffffffffffffffffffffffffffffffffff8116811461024357600080fd5b9392505050565b604081526000835180604084015260005b81811015610278576020818701810151606086840101520161025b565b5060006060828501015260607fffffffffffffffffffffffffffffffffffffffffffffffffffffffffffffffe0601f83011684010191505073ffffffffffffffffffffffffffffffffffffffff83166020830152939250505056fea2646970667358221220d8a119f1f1120c9bcd7e559111d0e7efdc25e33d0e2ca30fbb0019bdeef092ad64736f6c63430008120033', \n     arguments: [\n     ]\n}).send({\n     from: web3.eth.accounts[0], \n     gas: '4700000'\n   }, function (e, contract){\n    console.log(e, contract);\n    if (typeof contract.address !== 'undefined') {\n         console.log('Contract mined! address: ' + contract.address + ' transactionHash: ' + contract.transactionHash);\n    }\n })",
	"metadataHash": "30f896c0297f9656a0ccc697b1c6c0824e927865439157cd5dcf48c08db0f36e",
	"functionHashes": {
		"a6f9dae1": "changeOwner(address)"
	},
	"gasEstimates": {
		"Creation": {
			"codeDepositCost": "155400",
			"executionCost": "infinite",
			"totalCost": "infinite"
		},
		"External": {
			"changeOwner(address)": "30245"
		}
	},
	"devdoc": {
		"details": "Set & change owner",
		"kind": "dev",
		"methods": {
			"changeOwner(address)": {
				"details": "Change owner",
				"params": {
					"newOwner": "address of new owner"
				}
			},
			"constructor": {
				"details": "Set contract deployer as owner"
			}
		},
		"title": "Owner",
		"version": 1
	},
	"userdoc": {
		"kind": "user",
		"methods": {},
		"version": 1
	},
	"Runtime Bytecode": {
		"immutableReferences": {},
		"linkReferences": {},
		"object": "608060405234801561001057600080fd5b506004361061002b5760003560e01c8063a6f9dae114610030575b600080fd5b61004361003e36600461020d565b610045565b005b60005473ffffffffffffffffffffffffffffffffffffffff1633146100ca576040517f08c379a000000000000000000000000000000000000000000000000000000000815260206004820152601360248201527f43616c6c6572206973206e6f74206f776e657200000000000000000000000000604482015260640160405180910390fd5b6000805460405173ffffffffffffffffffffffffffffffffffffffff808516939216917f342827c97908e5e2f71151c08502a66d44b6f758e3ac2f1de95f02eb95f0a73591a3600080547fffffffffffffffffffffffff00000000000000000000000000000000000000001673ffffffffffffffffffffffffffffffffffffffff92909216919091179055565b6101e8828260405160240161016d92919061024a565b604080517fffffffffffffffffffffffffffffffffffffffffffffffffffffffffffffffe08184030181529190526020810180517bffffffffffffffffffffffffffffffffffffffffffffffffffffffff167f319af333000000000000000000000000000000000000000000000000000000001790526101ec565b5050565b80516a636f6e736f6c652e6c6f67602083016000808483855afa5050505050565b60006020828403121561021f57600080fd5b813573ffffffffffffffffffffffffffffffffffffffff8116811461024357600080fd5b9392505050565b604081526000835180604084015260005b81811015610278576020818701810151606086840101520161025b565b5060006060828501015260607fffffffffffffffffffffffffffffffffffffffffffffffffffffffffffffffe0601f83011684010191505073ffffffffffffffffffffffffffffffffffffffff83166020830152939250505056fea2646970667358221220d8a119f1f1120c9bcd7e559111d0e7efdc25e33d0e2ca30fbb0019bdeef092ad64736f6c63430008120033",
		"opcodes": "PUSH1 0x80 PUSH1 0x40 MSTORE CALLVALUE DUP1 ISZERO PUSH2 0x10 JUMPI PUSH1 0x0 DUP1 REVERT JUMPDEST POP PUSH1 0x4 CALLDATASIZE LT PUSH2 0x2B JUMPI PUSH1 0x0 CALLDATALOAD PUSH1 0xE0 SHR DUP1 PUSH4 0xA6F9DAE1 EQ PUSH2 0x30 JUMPI JUMPDEST PUSH1 0x0 DUP1 REVERT JUMPDEST PUSH2 0x43 PUSH2 0x3E CALLDATASIZE PUSH1 0x4 PUSH2 0x20D JUMP JUMPDEST PUSH2 0x45 JUMP JUMPDEST STOP JUMPDEST PUSH1 0x0 SLOAD PUSH20 0xFFFFFFFFFFFFFFFFFFFFFFFFFFFFFFFFFFFFFFFF AND CALLER EQ PUSH2 0xCA JUMPI PUSH1 0x40 MLOAD PUSH32 0x8C379A000000000000000000000000000000000000000000000000000000000 DUP2 MSTORE PUSH1 0x20 PUSH1 0x4 DUP3 ADD MSTORE PUSH1 0x13 PUSH1 0x24 DUP3 ADD MSTORE PUSH32 0x43616C6C6572206973206E6F74206F776E657200000000000000000000000000 PUSH1 0x44 DUP3 ADD MSTORE PUSH1 0x64 ADD PUSH1 0x40 MLOAD DUP1 SWAP2 SUB SWAP1 REVERT JUMPDEST PUSH1 0x0 DUP1 SLOAD PUSH1 0x40 MLOAD PUSH20 0xFFFFFFFFFFFFFFFFFFFFFFFFFFFFFFFFFFFFFFFF DUP1 DUP6 AND SWAP4 SWAP3 AND SWAP2 PUSH32 0x342827C97908E5E2F71151C08502A66D44B6F758E3AC2F1DE95F02EB95F0A735 SWAP2 LOG3 PUSH1 0x0 DUP1 SLOAD PUSH32 0xFFFFFFFFFFFFFFFFFFFFFFFF0000000000000000000000000000000000000000 AND PUSH20 0xFFFFFFFFFFFFFFFFFFFFFFFFFFFFFFFFFFFFFFFF SWAP3 SWAP1 SWAP3 AND SWAP2 SWAP1 SWAP2 OR SWAP1 SSTORE JUMP JUMPDEST PUSH2 0x1E8 DUP3 DUP3 PUSH1 0x40 MLOAD PUSH1 0x24 ADD PUSH2 0x16D SWAP3 SWAP2 SWAP1 PUSH2 0x24A JUMP JUMPDEST PUSH1 0x40 DUP1 MLOAD PUSH32 0xFFFFFFFFFFFFFFFFFFFFFFFFFFFFFFFFFFFFFFFFFFFFFFFFFFFFFFFFFFFFFFE0 DUP2 DUP5 SUB ADD DUP2 MSTORE SWAP2 SWAP1 MSTORE PUSH1 0x20 DUP2 ADD DUP1 MLOAD PUSH28 0xFFFFFFFFFFFFFFFFFFFFFFFFFFFFFFFFFFFFFFFFFFFFFFFFFFFFFFFF AND PUSH32 0x319AF33300000000000000000000000000000000000000000000000000000000 OR SWAP1 MSTORE PUSH2 0x1EC JUMP JUMPDEST POP POP JUMP JUMPDEST DUP1 MLOAD PUSH11 0x636F6E736F6C652E6C6F67 PUSH1 0x20 DUP4 ADD PUSH1 0x0 DUP1 DUP5 DUP4 DUP6 GAS STATICCALL POP POP POP POP POP JUMP JUMPDEST PUSH1 0x0 PUSH1 0x20 DUP3 DUP5 SUB SLT ISZERO PUSH2 0x21F JUMPI PUSH1 0x0 DUP1 REVERT JUMPDEST DUP2 CALLDATALOAD PUSH20 0xFFFFFFFFFFFFFFFFFFFFFFFFFFFFFFFFFFFFFFFF DUP2 AND DUP2 EQ PUSH2 0x243 JUMPI PUSH1 0x0 DUP1 REVERT JUMPDEST SWAP4 SWAP3 POP POP POP JUMP JUMPDEST PUSH1 0x40 DUP2 MSTORE PUSH1 0x0 DUP4 MLOAD DUP1 PUSH1 0x40 DUP5 ADD MSTORE PUSH1 0x0 JUMPDEST DUP2 DUP2 LT ISZERO PUSH2 0x278 JUMPI PUSH1 0x20 DUP2 DUP8 ADD DUP2 ADD MLOAD PUSH1 0x60 DUP7 DUP5 ADD ADD MSTORE ADD PUSH2 0x25B JUMP JUMPDEST POP PUSH1 0x0 PUSH1 0x60 DUP3 DUP6 ADD ADD MSTORE PUSH1 0x60 PUSH32 0xFFFFFFFFFFFFFFFFFFFFFFFFFFFFFFFFFFFFFFFFFFFFFFFFFFFFFFFFFFFFFFE0 PUSH1 0x1F DUP4 ADD AND DUP5 ADD ADD SWAP2 POP POP PUSH20 0xFFFFFFFFFFFFFFFFFFFFFFFFFFFFFFFFFFFFFFFF DUP4 AND PUSH1 0x20 DUP4 ADD MSTORE SWAP4 SWAP3 POP POP POP JUMP INVALID LOG2 PUSH5 0x6970667358 0x22 SLT KECCAK256 0xD8 LOG1 NOT CALL CALL SLT 0xC SWAP12 0xCD PUSH31 0x559111D0E7EFDC25E33D0E2CA30FBB0019BDEEF092AD64736F6C6343000812 STOP CALLER "
	},
	"Assembly": ".code\n  PUSH 80\t\t\tcontract Owner {\\n\\n    addres...\n  PUSH 40\t\t\tcontract Owner {\\n\\n    addres...\n  MSTORE \t\t\tcontract Owner {\\n\\n    addres...\n  CALLVALUE \t\t\tconstructor() {\\n        conso...\n  DUP1 \t\t\tconstructor() {\\n        conso...\n  ISZERO \t\t\tconstructor() {\\n        conso...\n  PUSH [tag] 1\t\t\tconstructor() {\\n        conso...\n  JUMPI \t\t\tconstructor() {\\n        conso...\n  PUSH 0\t\t\tconstructor() {\\n        conso...\n  DUP1 \t\t\tconstructor() {\\n        conso...\n  REVERT \t\t\tconstructor() {\\n        conso...\ntag 1\t\t\tconstructor() {\\n        conso...\n  JUMPDEST \t\t\tconstructor() {\\n        conso...\n  POP \t\t\tconstructor() {\\n        conso...\n  PUSH [tag] 4\t\t\tconsole.log(\"Owner contract de...\n  PUSH 40\t\t\tconsole.log(\"Owner contract de...\n  MLOAD \t\t\tconsole.log(\"Owner contract de...\n  DUP1 \t\t\tconsole.log(\"Owner contract de...\n  PUSH 40\t\t\tconsole.log(\"Owner contract de...\n  ADD \t\t\tconsole.log(\"Owner contract de...\n  PUSH 40\t\t\tconsole.log(\"Owner contract de...\n  MSTORE \t\t\tconsole.log(\"Owner contract de...\n  DUP1 \t\t\tconsole.log(\"Owner contract de...\n  PUSH 1B\t\t\tconsole.log(\"Owner contract de...\n  DUP2 \t\t\tconsole.log(\"Owner contract de...\n  MSTORE \t\t\tconsole.log(\"Owner contract de...\n  PUSH 20\t\t\tconsole.log(\"Owner contract de...\n  ADD \t\t\tconsole.log(\"Owner contract de...\n  PUSH 4F776E657220636F6E7472616374206465706C6F7965642062793A0000000000\t\t\tconsole.log(\"Owner contract de...\n  DUP2 \t\t\tconsole.log(\"Owner contract de...\n  MSTORE \t\t\tconsole.log(\"Owner contract de...\n  POP \t\t\tconsole.log(\"Owner contract de...\n  CALLER \t\t\tmsg.sender\n  PUSH [tag] 5\t\t\tconsole.log\n  PUSH 20\t\t\tconsole.log\n  SHL \t\t\tconsole.log\n  PUSH [tag] 18446744073709551624\t\t\tconsole.log\n  OR \t\t\tconsole.log\n  PUSH 20\t\t\tconsole.log(\"Owner contract de...\n  SHR \t\t\tconsole.log(\"Owner contract de...\n  JUMP \t\t\tconsole.log(\"Owner contract de...\ntag 4\t\t\tconsole.log(\"Owner contract de...\n  JUMPDEST \t\t\tconsole.log(\"Owner contract de...\n  PUSH 0\t\t\towner\n  DUP1 \t\t\towner = msg.sender\n  SLOAD \t\t\towner = msg.sender\n  PUSH 1\t\t\t\n  PUSH 1\t\t\t\n  PUSH A0\t\t\t\n  SHL \t\t\t\n  SUB \t\t\t\n  NOT \t\t\t\n  AND \t\t\towner = msg.sender\n  CALLER \t\t\tmsg.sender\n  SWAP1 \t\t\towner = msg.sender\n  DUP2 \t\t\towner = msg.sender\n  OR \t\t\towner = msg.sender\n  DUP3 \t\t\towner = msg.sender\n  SSTORE \t\t\towner = msg.sender\n  PUSH 40\t\t\tOwnerSet(address(0), owner)\n  MLOAD \t\t\tOwnerSet(address(0), owner)\n  SWAP1 \t\t\tmsg.sender\n  SWAP2 \t\t\tmsg.sender\n  SWAP1 \t\t\towner\n  PUSH 342827C97908E5E2F71151C08502A66D44B6F758E3AC2F1DE95F02EB95F0A735\t\t\tOwnerSet(address(0), owner)\n  SWAP1 \t\t\tOwnerSet(address(0), owner)\n  DUP3 \t\t\towner\n  SWAP1 \t\t\towner\n  LOG3 \t\t\tOwnerSet(address(0), owner)\n  PUSH [tag] 13\t\t\tcontract Owner {\\n\\n    addres...\n  JUMP \t\t\tcontract Owner {\\n\\n    addres...\ntag 5\t\t\t\n  JUMPDEST \t\t\t\n  PUSH [tag] 8\t\t\t\n  DUP3 \t\t\t\n  DUP3 \t\t\t\n  PUSH 40\t\t\t\n  MLOAD \t\t\t\n  PUSH 24\t\t\t\n  ADD \t\t\t\n  PUSH [tag] 9\t\t\t\n  SWAP3 \t\t\t\n  SWAP2 \t\t\t\n  SWAP1 \t\t\t\n  PUSH [tag] 10\t\t\t\n  JUMP \t\t\t\ntag 9\t\t\t\n  JUMPDEST \t\t\t\n  PUSH 40\t\t\t\n  DUP1 \t\t\t\n  MLOAD \t\t\t\n  PUSH 1F\t\t\t\n  NOT \t\t\t\n  DUP2 \t\t\t\n  DUP5 \t\t\t\n  SUB \t\t\t\n  ADD \t\t\t\n  DUP2 \t\t\t\n  MSTORE \t\t\t\n  SWAP2 \t\t\t\n  SWAP1 \t\t\t\n  MSTORE \t\t\t\n  PUSH 20\t\t\t\n  DUP2 \t\t\t\n  ADD \t\t\t\n  DUP1 \t\t\t\n  MLOAD \t\t\t\n  PUSH 1\t\t\t\n  PUSH 1\t\t\t\n  PUSH E0\t\t\t\n  SHL \t\t\t\n  SUB \t\t\t\n  SWAP1 \t\t\t\n  DUP2 \t\t\t\n  AND \t\t\t\n  PUSH 319AF333\t\t\t\n  PUSH E0\t\t\t\n  SHL \t\t\t\n  OR \t\t\t\n  SWAP1 \t\t\t\n  SWAP2 \t\t\t\n  MSTORE \t\t\t\n  PUSH [tag] 11\t\t\t\n  AND \t\t\t\n  JUMP \t\t\t\ntag 8\t\t\t\n  JUMPDEST \t\t\t\n  POP \t\t\t\n  POP \t\t\t\n  JUMP \t\t\t\ntag 11\t\t\tdress private owner;\\n\\n    //...\n  JUMPDEST \t\t\tdress private owner;\\n\\n    //...\n  DUP1 \t\t\tdOwner, addres\n  MLOAD \t\t\tdOwner, addres\n  PUSH 636F6E736F6C652E6C6F67\t\t\tSet & change owner\\n */\\ncontr...\n  PUSH 20\t\t\t  \n  DUP4 \t\t\twner() {\\n       \n  ADD \t\t\twner() {\\n       \n  PUSH 0\t\t\terSet(address indexed\n  DUP1 \t\t\terSet(address indexed\n  DUP5 \t\t\tdOwner, addres\n  DUP4 \t\t\twner() {\\n       \n  DUP6 \t\t\tSet & change owner\\n */\\ncontr...\n  GAS \t\t\tt of \n  STATICCALL \t\t\trst argument of 'require' eval...\n  POP \t\t\tIf the first argument of 'requ...\n  POP \t\t\tIf the first argument of 'requ...\n  POP \t\t\tis owner\\n    modifier isOwner...\n  POP \t\t\tis owner\\n    modifier isOwner...\n  POP \t\t\tdress private owner;\\n\\n    //...\n  JUMP \t\t\tdress private owner;\\n\\n    //...\ntag 10\t\t\te-Identifier: GPL-3.0\\n\\npragm...\n  JUMPDEST \t\t\te-Identifier: GPL-3.0\\n\\npragm...\n  PUSH 40\t\t\twn\n  DUP2 \t\t\ts private\n  MSTORE \t\t\t address private owne\n  PUSH 0\t\t\tntra\n  DUP4 \t\t\ting\\n  \n  MLOAD \t\t\tM logging\\n   \n  DUP1 \t\t\twner, \n  PUSH 40\t\t\t o\n  DUP5 \t\t\tess index\n  ADD \t\t\taddress indexed ol\n  MSTORE \t\t\tnerSet(address indexed oldOwne...\n  PUSH 0\t\t\tO\ntag 15\t\t\t   // modifier to check if cal...\n  JUMPDEST \t\t\t   // modifier to check if cal...\n  DUP2 \t\t\t to ch\n  DUP2 \t\t\ti\n  LT \t\t\tdifier to che\n  ISZERO \t\t\t   // modifier to check if cal...\n  PUSH [tag] 17\t\t\t   // modifier to check if cal...\n  JUMPI \t\t\t   // modifier to check if cal...\n  PUSH 20\t\t\t'fal\n  DUP2 \t\t\te' evaluates t\n  DUP8 \t\t\te' evaluates t\n  ADD \t\t\te' evaluates t\n  DUP2 \t\t\tquire' evaluates to 'fals\n  ADD \t\t\tquire' evaluates to 'fals\n  MLOAD \t\t\tof 'require' evaluates to 'fal...\n  PUSH 60\t\t\tme\n  DUP7 \t\t\t/ If the first ar\n  DUP5 \t\t\t/ If the first ar\n  ADD \t\t\t/ If the first ar\n  ADD \t\t\t   // If the first argumen\n  MSTORE \t\t\t{\\n        // If the first arg...\n  ADD \t\t\tller is owne\n  PUSH [tag] 15\t\t\t   // modifier to check if cal...\n  JUMP \t\t\t   // modifier to check if cal...\ntag 17\t\t\t   // modifier to check if cal...\n  JUMPDEST \t\t\t   // modifier to check if cal...\n  POP \t\t\t\n  PUSH 0\t\t\ta\n  PUSH 60\t\t\the\n  DUP3 \t\t\t\\n        // changes to\n  DUP6 \t\t\t\\n        // changes to\n  ADD \t\t\t\\n        // changes to\n  DUP2 \t\t\t all\\n        // changes to th...\n  ADD \t\t\t all\\n        // changes to th...\n  SWAP2 \t\t\ttes and all\\n        // change...\n  SWAP1 \t\t\ttes and all\\n        // change...\n  SWAP2 \t\t\ttes and all\\n        // change...\n  MSTORE \t\t\ttes and all\\n        // change...\n  PUSH 1\t\t\t\n  PUSH 1\t\t\t\n  PUSH A0\t\t\t\n  SHL \t\t\t\n  SUB \t\t\t\n  SWAP5 \t\t\tymore.\\n        // It is often...\n  SWAP1 \t\t\tymore.\\n        // It is often...\n  SWAP5 \t\t\tymore.\\n        // It is often...\n  AND \t\t\tymore.\\n        // It is often...\n  PUSH 20\t\t\t not\n  DUP5 \t\t\tM versions, but not \n  ADD \t\t\tM versions, but not \n  MSTORE \t\t\t old EVM versions, but not any...\n  PUSH 1F\t\t\t c\n  ADD \t\t\t      // This u\n  PUSH 1F\t\t\t\n  NOT \t\t\t\n  AND \t\t\t.\\n        // This used to con\n  SWAP1 \t\t\tes are reverted.\\n        // T...\n  SWAP2 \t\t\tes are reverted.\\n        // T...\n  ADD \t\t\tes are reverted.\\n        // T...\n  SWAP1 \t\t\tlances are reverted.\\n        ...\n  SWAP2 \t\t\tlances are reverted.\\n        ...\n  ADD \t\t\tlances are reverted.\\n        ...\n  SWAP3 \t\t\tlances are reverted.\\n        ...\n  SWAP2 \t\t\tlances are reverted.\\n        ...\n  POP \t\t\t\n  POP \t\t\t\n  JUMP \t\t\te-Identifier: GPL-3.0\\n\\npragm...\ntag 13\t\t\te-Identifier: GPL-3.0\\n\\npragm...\n  JUMPDEST \t\t\te-Identifier: GPL-3.0\\n\\npragm...\n  PUSH #[$] 0000000000000000000000000000000000000000000000000000000000000000\t\t\tcontract Owner {\\n\\n    addres...\n  DUP1 \t\t\tcontract Owner {\\n\\n    addres...\n  PUSH [$] 0000000000000000000000000000000000000000000000000000000000000000\t\t\tcontract Owner {\\n\\n    addres...\n  PUSH 0\t\t\tcontract Owner {\\n\\n    addres...\n  CODECOPY \t\t\tcontract Owner {\\n\\n    addres...\n  PUSH 0\t\t\tcontract Owner {\\n\\n    addres...\n  RETURN \t\t\tcontract Owner {\\n\\n    addres...\n.data\n  0:\n    .code\n      PUSH 80\t\t\tcontract Owner {\\n\\n    addres...\n      PUSH 40\t\t\tcontract Owner {\\n\\n    addres...\n      MSTORE \t\t\tcontract Owner {\\n\\n    addres...\n      CALLVALUE \t\t\tcontract Owner {\\n\\n    addres...\n      DUP1 \t\t\tcontract Owner {\\n\\n    addres...\n      ISZERO \t\t\tcontract Owner {\\n\\n    addres...\n      PUSH [tag] 1\t\t\tcontract Owner {\\n\\n    addres...\n      JUMPI \t\t\tcontract Owner {\\n\\n    addres...\n      PUSH 0\t\t\tcontract Owner {\\n\\n    addres...\n      DUP1 \t\t\tcontract Owner {\\n\\n    addres...\n      REVERT \t\t\tcontract Owner {\\n\\n    addres...\n    tag 1\t\t\tcontract Owner {\\n\\n    addres...\n      JUMPDEST \t\t\tcontract Owner {\\n\\n    addres...\n      POP \t\t\tcontract Owner {\\n\\n    addres...\n      PUSH 4\t\t\tcontract Owner {\\n\\n    addres...\n      CALLDATASIZE \t\t\tcontract Owner {\\n\\n    addres...\n      LT \t\t\tcontract Owner {\\n\\n    addres...\n      PUSH [tag] 2\t\t\tcontract Owner {\\n\\n    addres...\n      JUMPI \t\t\tcontract Owner {\\n\\n    addres...\n      PUSH 0\t\t\tcontract Owner {\\n\\n    addres...\n      CALLDATALOAD \t\t\tcontract Owner {\\n\\n    addres...\n      PUSH E0\t\t\tcontract Owner {\\n\\n    addres...\n      SHR \t\t\tcontract Owner {\\n\\n    addres...\n      DUP1 \t\t\tcontract Owner {\\n\\n    addres...\n      PUSH A6F9DAE1\t\t\tcontract Owner {\\n\\n    addres...\n      EQ \t\t\tcontract Owner {\\n\\n    addres...\n      PUSH [tag] 3\t\t\tcontract Owner {\\n\\n    addres...\n      JUMPI \t\t\tcontract Owner {\\n\\n    addres...\n    tag 2\t\t\tcontract Owner {\\n\\n    addres...\n      JUMPDEST \t\t\tcontract Owner {\\n\\n    addres...\n      PUSH 0\t\t\tcontract Owner {\\n\\n    addres...\n      DUP1 \t\t\tcontract Owner {\\n\\n    addres...\n      REVERT \t\t\tcontract Owner {\\n\\n    addres...\n    tag 3\t\t\tfunction changeOwner(address n...\n      JUMPDEST \t\t\tfunction changeOwner(address n...\n      PUSH [tag] 4\t\t\tfunction changeOwner(address n...\n      PUSH [tag] 5\t\t\tfunction changeOwner(address n...\n      CALLDATASIZE \t\t\tfunction changeOwner(address n...\n      PUSH 4\t\t\tfunction changeOwner(address n...\n      PUSH [tag] 6\t\t\tfunction changeOwner(address n...\n      JUMP \t\t\tfunction changeOwner(address n...\n    tag 5\t\t\tfunction changeOwner(address n...\n      JUMPDEST \t\t\tfunction changeOwner(address n...\n      PUSH [tag] 7\t\t\tfunction changeOwner(address n...\n      JUMP \t\t\tfunction changeOwner(address n...\n    tag 4\t\t\tfunction changeOwner(address n...\n      JUMPDEST \t\t\tfunction changeOwner(address n...\n      STOP \t\t\tfunction changeOwner(address n...\n    tag 7\t\t\tfunction changeOwner(address n...\n      JUMPDEST \t\t\tfunction changeOwner(address n...\n      PUSH 0\t\t\towner\n      SLOAD \t\t\towner\n      PUSH FFFFFFFFFFFFFFFFFFFFFFFFFFFFFFFFFFFFFFFF\t\t\towner\n      AND \t\t\towner\n      CALLER \t\t\tmsg.sender\n      EQ \t\t\tmsg.sender == owner\n      PUSH [tag] 10\t\t\trequire(msg.sender == owner, \"...\n      JUMPI \t\t\trequire(msg.sender == owner, \"...\n      PUSH 40\t\t\trequire(msg.sender == owner, \"...\n      MLOAD \t\t\trequire(msg.sender == owner, \"...\n      PUSH 8C379A000000000000000000000000000000000000000000000000000000000\t\t\trequire(msg.sender == owner, \"...\n      DUP2 \t\t\trequire(msg.sender == owner, \"...\n      MSTORE \t\t\trequire(msg.sender == owner, \"...\n      PUSH 20\t\t\ted\n      PUSH 4\t\t\trequire(msg.sender == owner, \"...\n      DUP3 \t\t\trequire(msg.sender == owner, \"...\n      ADD \t\t\trequire(msg.sender == owner, \"...\n      MSTORE \t\t\talances are reverted.\n      PUSH 13\t\t\t g\n      PUSH 24\t\t\t used to consume a\n      DUP3 \t\t\t used to consume a\n      ADD \t\t\t used to consume a\n      MSTORE \t\t\t// This used to consume all ga\n      PUSH 43616C6C6572206973206E6F74206F776E657200000000000000000000000000\t\t\tre.\\n        // It is \n      PUSH 44\t\t\tsions, but not any\n      DUP3 \t\t\tsions, but not any\n      ADD \t\t\tsions, but not any\n      MSTORE \t\t\tEVM versions, but not anymore....\n      PUSH 64\t\t\tto use 'require' t\n      ADD \t\t\tto use 'require' t\n      PUSH 40\t\t\trequire(msg.sender == owner, \"...\n      MLOAD \t\t\trequire(msg.sender == owner, \"...\n      DUP1 \t\t\trequire(msg.sender == owner, \"...\n      SWAP2 \t\t\trequire(msg.sender == owner, \"...\n      SUB \t\t\trequire(msg.sender == owner, \"...\n      SWAP1 \t\t\trequire(msg.sender == owner, \"...\n      REVERT \t\t\trequire(msg.sender == owner, \"...\n    tag 10\t\t\trequire(msg.sender == owner, \"...\n      JUMPDEST \t\t\trequire(msg.sender == owner, \"...\n      PUSH 0\t\t\towner\n      DUP1 \t\t\towner\n      SLOAD \t\t\towner\n      PUSH 40\t\t\tOwnerSet(owner, newOwner)\n      MLOAD \t\t\tOwnerSet(owner, newOwner)\n      PUSH FFFFFFFFFFFFFFFFFFFFFFFFFFFFFFFFFFFFFFFF\t\t\tOwnerSet(owner, newOwner)\n      DUP1 \t\t\tOwnerSet(owner, newOwner)\n      DUP6 \t\t\tOwnerSet(owner, newOwner)\n      AND \t\t\tOwnerSet(owner, newOwner)\n      SWAP4 \t\t\tOwnerSet(owner, newOwner)\n      SWAP3 \t\t\towner\n      AND \t\t\towner\n      SWAP2 \t\t\towner\n      PUSH 342827C97908E5E2F71151C08502A66D44B6F758E3AC2F1DE95F02EB95F0A735\t\t\tOwnerSet(owner, newOwner)\n      SWAP2 \t\t\tOwnerSet(owner, newOwner)\n      LOG3 \t\t\tOwnerSet(owner, newOwner)\n      PUSH 0\t\t\towner\n      DUP1 \t\t\towner = newOwner\n      SLOAD \t\t\towner = newOwner\n      PUSH FFFFFFFFFFFFFFFFFFFFFFFF0000000000000000000000000000000000000000\t\t\towner = newOwner\n      AND \t\t\towner = newOwner\n      PUSH FFFFFFFFFFFFFFFFFFFFFFFFFFFFFFFFFFFFFFFF\t\t\towner = newOwner\n      SWAP3 \t\t\towner = newOwner\n      SWAP1 \t\t\towner = newOwner\n      SWAP3 \t\t\towner = newOwner\n      AND \t\t\towner = newOwner\n      SWAP2 \t\t\towner = newOwner\n      SWAP1 \t\t\towner = newOwner\n      SWAP2 \t\t\towner = newOwner\n      OR \t\t\towner = newOwner\n      SWAP1 \t\t\towner = newOwner\n      SSTORE \t\t\towner = newOwner\n      JUMP \t\t\tfunction changeOwner(address n...\n    tag 8\t\t\t\n      JUMPDEST \t\t\t\n      PUSH [tag] 15\t\t\t\n      DUP3 \t\t\t\n      DUP3 \t\t\t\n      PUSH 40\t\t\t\n      MLOAD \t\t\t\n      PUSH 24\t\t\t\n      ADD \t\t\t\n      PUSH [tag] 16\t\t\t\n      SWAP3 \t\t\t\n      SWAP2 \t\t\t\n      SWAP1 \t\t\t\n      PUSH [tag] 17\t\t\t\n      JUMP \t\t\t\n    tag 16\t\t\t\n      JUMPDEST \t\t\t\n      PUSH 40\t\t\t\n      DUP1 \t\t\t\n      MLOAD \t\t\t\n      PUSH FFFFFFFFFFFFFFFFFFFFFFFFFFFFFFFFFFFFFFFFFFFFFFFFFFFFFFFFFFFFFFE0\t\t\t\n      DUP2 \t\t\t\n      DUP5 \t\t\t\n      SUB \t\t\t\n      ADD \t\t\t\n      DUP2 \t\t\t\n      MSTORE \t\t\t\n      SWAP2 \t\t\t\n      SWAP1 \t\t\t\n      MSTORE \t\t\t\n      PUSH 20\t\t\t\n      DUP2 \t\t\t\n      ADD \t\t\t\n      DUP1 \t\t\t\n      MLOAD \t\t\t\n      PUSH FFFFFFFFFFFFFFFFFFFFFFFFFFFFFFFFFFFFFFFFFFFFFFFFFFFFFFFF\t\t\t\n      AND \t\t\t\n      PUSH 319AF33300000000000000000000000000000000000000000000000000000000\t\t\t\n      OR \t\t\t\n      SWAP1 \t\t\t\n      MSTORE \t\t\t\n      PUSH [tag] 18\t\t\t\n      JUMP \t\t\t\n    tag 15\t\t\t\n      JUMPDEST \t\t\t\n      POP \t\t\t\n      POP \t\t\t\n      JUMP \t\t\t\n    tag 18\t\t\tdress private owner;\\n\\n    //...\n      JUMPDEST \t\t\tdress private owner;\\n\\n    //...\n      DUP1 \t\t\tdOwner, addres\n      MLOAD \t\t\tdOwner, addres\n      PUSH 636F6E736F6C652E6C6F67\t\t\tSet & change owner\\n */\\ncontr...\n      PUSH 20\t\t\t  \n      DUP4 \t\t\twner() {\\n       \n      ADD \t\t\twner() {\\n       \n      PUSH 0\t\t\terSet(address indexed\n      DUP1 \t\t\terSet(address indexed\n      DUP5 \t\t\tdOwner, addres\n      DUP4 \t\t\twner() {\\n       \n      DUP6 \t\t\tSet & change owner\\n */\\ncontr...\n      GAS \t\t\tt of \n      STATICCALL \t\t\trst argument of 'require' eval...\n      POP \t\t\tIf the first argument of 'requ...\n      POP \t\t\tIf the first argument of 'requ...\n      POP \t\t\tis owner\\n    modifier isOwner...\n      POP \t\t\tis owner\\n    modifier isOwner...\n      POP \t\t\tdress private owner;\\n\\n    //...\n      JUMP \t\t\tdress private owner;\\n\\n    //...\n    tag 6\t\t\te-Identifier: GPL-3.0\\n\\npragm...\n      JUMPDEST \t\t\te-Identifier: GPL-3.0\\n\\npragm...\n      PUSH 0\t\t\tort \"h\n      PUSH 20\t\t\tev\n      DUP3 \t\t\t Owner\\n *\n      DUP5 \t\t\t * @tit\n      SUB \t\t\t/**\\n * @title Owner\\n * \n      SLT \t\t\t\";\\n\\n/**\\n * @title Owner\\n *...\n      ISZERO \t\t\tsol\";\\n\\n/**\\n * @title Owner\\...\n      PUSH [tag] 22\t\t\tsol\";\\n\\n/**\\n * @title Owner\\...\n      JUMPI \t\t\tsol\";\\n\\n/**\\n * @title Owner\\...\n      PUSH 0\t\t\to\n      DUP1 \t\t\tg\n      REVERT \t\t\t & change ow\n    tag 22\t\t\tsol\";\\n\\n/**\\n * @title Owner\\...\n      JUMPDEST \t\t\tsol\";\\n\\n/**\\n * @title Owner\\...\n      DUP2 \t\t\t private \n      CALLDATALOAD \t\t\t\\n\\n    address private o\n      PUSH FFFFFFFFFFFFFFFFFFFFFFFFFFFFFFFFFFFFFFFF\t\t\tevent OwnerSet(address indexed...\n      DUP2 \t\t\tng\\n  \n      AND \t\t\togging\\n    event OwnerSet(add...\n      DUP2 \t\t\tr EVM\n      EQ \t\t\t for EVM logging\\n    event Ow...\n      PUSH [tag] 23\t\t\t  // event for EVM logging\\n  ...\n      JUMPI \t\t\t  // event for EVM logging\\n  ...\n      PUSH 0\t\t\te\n      DUP1 \t\t\td\n      REVERT \t\t\t indexed new\n    tag 23\t\t\t  // event for EVM logging\\n  ...\n      JUMPDEST \t\t\t  // event for EVM logging\\n  ...\n      SWAP4 \t\t\tier t\n      SWAP3 \t\t\te-Identifier: GPL-3.0\\n\\npragm...\n      POP \t\t\t\n      POP \t\t\t\n      POP \t\t\t\n      JUMP \t\t\te-Identifier: GPL-3.0\\n\\npragm...\n    tag 17\t\t\tfunctions are called correctly...\n      JUMPDEST \t\t\tfunctions are called correctly...\n      PUSH 40\t\t\twn\n      DUP2 \t\t\ter is not\n      MSTORE \t\t\t, \"Caller is not owne\n      PUSH 0\t\t\tmsg.\n      DUP4 \t\t\t*\\n    \n      MLOAD \t\t\t    /**\\n     \n      DUP1 \t\t\tr\\n    \n      PUSH 40\t\t\t o\n      DUP5 \t\t\tdeployer \n      ADD \t\t\tact deployer as ow\n      MSTORE \t\t\tt contract deployer as owner\\n...\n      PUSH 0\t\t\t(\n    tag 26\t\t\t   console.log(\"Owner contract...\n      JUMPDEST \t\t\t   console.log(\"Owner contract...\n      DUP2 \t\t\t(\"Owne\n      DUP2 \t\t\tl\n      LT \t\t\tle.log(\"Owner\n      ISZERO \t\t\t   console.log(\"Owner contract...\n      PUSH [tag] 28\t\t\t   console.log(\"Owner contract...\n      JUMPI \t\t\t   console.log(\"Owner contract...\n      PUSH 20\t\t\tl, c\n      DUP2 \t\t\tr of current c\n      DUP8 \t\t\tr of current c\n      ADD \t\t\tr of current c\n      DUP2 \t\t\tender of current call, co\n      ADD \t\t\tender of current call, co\n      MLOAD \t\t\t' is sender of current call, c...\n      PUSH 60\t\t\ten\n      DUP7 \t\t\tg.sender; // 'msg\n      DUP5 \t\t\tg.sender; // 'msg\n      ADD \t\t\tg.sender; // 'msg\n      ADD \t\t\t= msg.sender; // 'msg.send\n      MSTORE \t\t\t owner = msg.sender; // 'msg.s...\n      ADD \t\t\tt deployed b\n      PUSH [tag] 26\t\t\t   console.log(\"Owner contract...\n      JUMP \t\t\t   console.log(\"Owner contract...\n    tag 28\t\t\t   console.log(\"Owner contract...\n      JUMPDEST \t\t\t   console.log(\"Owner contract...\n      POP \t\t\tons\n      PUSH 0\t\t\ts\n      PUSH 60\t\t\tad\n      DUP3 \t\t\tOwnerS\n      DUP6 \t\t\t      emi\n      ADD \t\t\tr\\n        emit OwnerSe\n      ADD \t\t\tuctor\\n        emit OwnerSet(a...\n      MSTORE \t\t\t constructor\\n        emit Own...\n      PUSH 60\t\t\ter\n      PUSH FFFFFFFFFFFFFFFFFFFFFFFFFFFFFFFFFFFFFFFFFFFFFFFFFFFFFFFFFFFFFFE0\t\t\t * @param newOwner address of ...\n      PUSH 1F\t\t\t\\n \n      DUP4 \t\t\tge own\n      ADD \t\t\tChange owner\\n  \n      AND \t\t\tdev Change owner\\n     * @para...\n      DUP5 \t\t\t**\\n     *\n      ADD \t\t\t   /**\\n     * @dev Change own...\n      ADD \t\t\t}\\n\\n    /**\\n     * @dev Chan...\n      SWAP2 \t\t\tr);\\n    }\\n\\n    /**\\n     * ...\n      POP \t\t\tr);\\n    }\\n\\n    /**\\n     * ...\n      POP \t\t\tr);\\n    }\\n\\n    /**\\n     * ...\n      PUSH FFFFFFFFFFFFFFFFFFFFFFFFFFFFFFFFFFFFFFFF\t\t\tnerSet(owner, newOwner);\\n    ...\n      DUP4 \t\t\t emit \n      AND \t\t\t     emit OwnerSet(owner, newO...\n      PUSH 20\t\t\tr {\\n\n      DUP4 \t\t\tblic isOw\n      ADD \t\t\t) public isOwner {\\n \n      MSTORE \t\t\tewOwner) public isOwner {\\n   ...\n      SWAP4 \t\t\tfunctions are called correctly...\n      SWAP3 \t\t\tfunctions are called correctly...\n      POP \t\t\tfunctions are called correctly...\n      POP \t\t\tfunctions are called correctly...\n      POP \t\t\tfunctions are called correctly...\n      JUMP \t\t\tfunctions are called correctly...\n    .data\n"
}